:020000040800F2
:1000000000500020C108000881040008890400088D
:100010009104000899040008A104000800000000F1
:10002000000000000000000000000000A90400081B
:10003000B504000800000000C1040008CD04000859
:100040000909000809090008090900080909000848
:100050000909000809090008090900080909000838
:100060000909000809090008090900080909000828
:100070000909000809090008D9040008ED0400086E
:100080000909000809090008090900080909000808
:1000900009090008090900080909000809090008F8
:1000A00009090008090900080909000809090008E8
:1000B00009090008090900080105000809090008E4
:1000C00009090008090900080909000809090008C8
:1000D00009090008150500080909000809090008B0
:1000E00009090008090900080909000800000000C2
:1000F0000000000000000000000000000000000000
:0C01000000000000000000005FF808F1A3
:10010C0010B5054C237833B9044B13B10448AFF345
:10011C0000800123237010BD10000020000000009F
:10012C00BC67000808B5034B1BB103490348AFF388
:10013C00008008BD0000000014000020BC6700080F
:10014C0080B582B000AF104B5B690F4A43F00103DE
:10015C0053610D4B5B6903F001037B607B680022EC
:10016C0000210E2002F075FE0E2002F08EFE002201
:10017C0000210F2002F06DFE0F2002F086FE00BF62
:10018C000837BD4680BD00BF0010024080B588B066
:10019C0000AF07F1100300221A605A609A60DA600F
:1001AC00304B9B692F4A43F0100393612D4B9B6995
:1001BC0003F01003FB60FB682A4B9B69294A43F050
:1001CC0020039361274B9B6903F02003BB60BB6842
:1001DC00244B9B69234A43F004039361214B9B6995
:1001EC0003F004037B607B681E4B9B691D4A43F044
:1001FC00080393611B4B9B6903F008033B603B684E
:10020C0000224FF40041184803F097FA4FF40043D2
:10021C003B6101237B610123BB610323FB6107F17C
:10022C0010031946104803F0EDF8FF233B6100233F
:10023C007B610123BB6107F1100319460B4803F0E6
:10024C00E1F803233B6100237B610123BB6107F1D0
:10025C0010031946064803F0D5F800BF2037BD46F9
:10026C0080BD00BF0010024000100140000801409A
:10027C00000C014080B500AF124B134A1A60114BB1
:10028C00124A5A600F4B00229A600E4B0022DA6021
:10029C000C4B4FF480421A610A4B00225A61094BF5
:1002AC0000229A61074B0022DA61064B00221A6287
:1002BC00044803F05BFA0346002B01D000F0A2F8CF
:1002CC0000BF80BD2C00002000580040801A0600A2
:1002DC0080B588B000AF786007F1100300221A6077
:1002EC005A609A60DA607B681B68164A934224D184
:1002FC00154B9B69144A43F008039361124B9B699D
:10030C0003F00803FB60FB684FF440633B6112236E
:10031C007B610323FB6107F1100319460B4803F0C3
:10032C0071F8094BDB69084A43F48003D361064B2F
:10033C00DB6903F48003BB60BB6800BF2037BD469C
:10034C0080BD00BF0058004000100240000C01406E
:10035C0080B500AF02F020FC00F00FF8FFF716FF9D
:10036C00FFF7EEFE00F0E0F800F0D0F9FFF782FFA7
:10037C0000F0BAFE01F04EF8FCE780B590B000AF8B
:10038C0007F1180328220021184606F0D7F93B1D67
:10039C0000221A605A609A60DA601A610123BB610C
:1003AC004FF48033FB6100233B620123BB620223C9
:1003BC007B634FF48033BB634FF4E013FB6307F1B3
:1003CC001803184603F06EFE0346002B01D000F014
:1003DC0019F80F237B600223BB600023FB604FF4F2
:1003EC0080633B6100237B613B1D0221184604F0B6
:1003FC00DBF80346002B01D000F004F800BF4037B7
:10040C00BD4680BD80B400AF72B600BF00BFFDE733
:10041C0080B485B000AF154B9B69144A43F00103BF
:10042C009361124B9B6903F00103BB60BB680F4BDC
:10043C00DB690E4A43F08053D3610C4BDB6903F04C
:10044C0080537B607B680A4B5B68FB60FB6823F026
:10045C00E063FB60FB6843F00073FB60044AFB68DD
:10046C00536000BF1437BD4680BC7047001002407B
:10047C000000014080B400AF00BFFDE780B400AFC6
:10048C0000BFFDE780B400AF00BFFDE780B400AF54
:10049C0000BFFDE780B400AF00BFFDE780B400AF44
:1004AC0000BFBD4680BC704780B400AF00BFBD46E6
:1004BC0080BC704780B400AF00BFBD4680BC7047A5
:1004CC0080B500AF02F0AEFB00BF80BD80B500AFC1
:1004DC00024802F063FE00BF80BD00BF5401002043
:1004EC0080B500AF024802F059FE00BF80BD00BFCE
:1004FC001001002080B500AF024804F02DFB00BFB6
:10050C0080BD00BF8000002080B500AF024805F020
:10051C00EDF900BF80BD00BFC800002080B400AF63
:10052C0000BFBD4680BC704780B58EB000AF07F1F0
:10053C00280300221A605A609A60DA6007F12003DF
:10054C0000221A605A603B1D00221A605A609A60A1
:10055C00DA601A615A619A613D4B3E4A1A603C4B13
:10056C0040F2CF225A603A4B00229A60384B4FF43B
:10057C00FA62DA60364B00221A61354B80229A619E
:10058C00334804F09FF90346002B01D0FFF73AFFE4
:10059C004FF48053BB6207F1280319462C4804F032
:1005AC00A5FC0346002B01D0FFF72CFF284804F0D4
:1005BC00D8F90346002B01D0FFF724FF00233B6240
:1005CC0000237B6207F120031946214805F026F829
:1005DC000346002B01D0FFF715FF60237B6000233F
:1005EC00BB600023FB6000237B613B1D002219468E
:1005FC00174804F0B9FB0346002B01D0FFF702FFAC
:10060C003B1D04221946124804F0AEFB0346002B96
:10061C0001D0FFF7F7FE3B1D082219460C4804F0E9
:10062C00A3FB0346002B01D0FFF7ECFE3B1D0C2275
:10063C001946074804F098FB0346002B01D0FFF73E
:10064C00E1FE034800F02EF800BF3837BD4680BDF0
:10065C00800000200008004080B584B000AF7860B6
:10066C007B681B680D4A934213D10D4BDB690C4A16
:10067C0043F00403D3610A4BDB6903F00403FB6012
:10068C00FB68002200211E2002F0E3FB1E2002F07A
:10069C00FCFB00BF1037BD4680BD00BF000800400A
:1006AC000010024080B588B000AF786007F11003ED
:1006BC0000221A605A609A60DA607B681B68104AE4
:1006CC00934218D10F4B9B690E4A43F00803936178
:1006DC000C4B9B6903F00803FB60FB684FF47073D1
:1006EC003B6102237B610223FB6107F11003194676
:1006FC00054802F087FE00BF2037BD4680BD00BF15
:10070C000008004000100240000C014080B500AF12
:10071C00114B124A1A60104B4FF416525A600E4B82
:10072C0000229A600C4B0022DA600B4B00221A61FB
:10073C00094B0C225A61084B00229A61064B00228D
:10074C00DA61054804F0DAFF0346002B01D0FFF70D
:10075C0059FE00BF80BD00BFC8000020003801401A
:10076C0080B588B000AF786007F1100300221A60E2
:10077C005A609A60DA607B681B68474A934240F083
:10078C008680464B9B69454A43F480439361434BB7
:10079C009B6903F48043FB60FB68404B9B693F4AB9
:1007AC0043F0040393613D4B9B6903F00403BB606E
:1007BC00BB684FF400733B6102237B610323FB6135
:1007CC0007F110031946364802F01CFE4FF4806303
:1007DC003B6100237B610023BB6107F110031946C9
:1007EC002F4802F00FFE2F4B2F4A1A602D4B002280
:1007FC005A602C4B00229A602A4B8022DA60294BDB
:10080C0000221A61274B00225A61264B00229A6162
:10081C00244B0022DA61234802F052FB0346002BE2
:10082C0001D0FFF7EFFD7B681E4ADA631D4A7B6837
:10083C0053621E4B1E4A1A601C4B10225A601B4BF3
:10084C0000229A60194B8022DA60184B00221A6140
:10085C00164B00225A61154B00229A61134B002251
:10086C00DA61124802F02CFB0346002B01D0FFF793
:10087C00C9FD7B680D4A9A630C4A7B68536200225F
:10088C000021252002F0E5FA252002F0FEFA00BF37
:10089C002037BD4680BD00BF00380140001002402B
:1008AC0000080140100100205800024054010020B3
:1008BC0044000240FFF732FE0B480C490C4A00235F
:1008CC0002E0D458C4500433C4188C42F9D3094AFA
:1008DC00094C002301E013600432A242FBD305F063
:1008EC0035FFFFF735FD7047000000200C0000209D
:1008FC0078730008100000203C080020FEE780B44C
:10090C0083B000AF78607B684FF0FF321A607B6871
:10091C000A225A6000BF0C37BD4680BC704780B4B9
:10092C0083B000AF78607B681B68B3F1FF3F0CBFEE
:10093C0001230023DBB218460C37BD4680BC704740
:10094C0080B483B000AF78607B681A687B685B68A2
:10095C00013B9A420CBF01230023DBB218460C3733
:10096C00BD4680BC704780B588B000AFF860B960F8
:10097C007A603B60F868FFF7E3FF0346002B20D159
:10098C00FB681B685A1CFB681A60FB681B68F968DB
:10099C001A010A440832B9681160F9681A010A444C
:1009AC000C3279681160F9685A1C12010A443968D2
:1009BC001160FA6801331B0113440433BA6A1A60DC
:1009CC0000E000BF2037BD4680BD80B582B000AFCF
:1009DC00786039607868FFF7A2FF0346002B01D0DE
:1009EC0001232EE07B681B687A681B0113440833D3
:1009FC001B68DAB23B68DA707B681B687A681B018B
:100A0C0013440C331B68DAB23B689A707B681B6822
:100A1C007A6801331B0113441B68DAB23B685A70C5
:100A2C007B681B687A6801331B01134404331B6811
:100A3C00DAB23B681A707B681B685A1E7B681A60B6
:100A4C00002318460837BD4680BD000080B584B031
:100A5C0000AF786039603B680C2B49D801A252F882
:100A6C0023F000BFE70A0008FD0A0008FD0A000891
:100A7C00FD0A0008D10A0008FD0A0008FD0A00085A
:100A8C00FD0A0008BB0A0008FD0A0008FD0A000860
:100A9C00FD0A0008A50A00087B681B78FB737B68BD
:100AAC001B79BB737B681A787B681A7121E07B68B1
:100ABC005B78FB737B685B79BB737B685A787B686C
:100ACC005A7116E07B689B78FB737B689B79BB73D0
:100ADC007B689A787B689A710BE07B68DB78FB7398
:100AEC007B68DB79BB737B68DA787B68DA7100E052
:100AFC0000BFFA7BBB7B9A4236D300237B732CE07E
:100B0C003B68002B06D1BA7B7B7B1A44354B1B68A8
:100B1C005A631CE03B68042B07D1BA7B7B7BD11852
:100B2C00304B1A680B46936311E03B68082B07D1D6
:100B3C00BA7B7B7BD1182B4B1A680B46D36306E030
:100B4C00BA7B7B7BD118274B1A680B4613640F209A
:100B5C0002F084F87B7B01337B737A7BF97BBB7B64
:100B6C00CB1A9A42CCDB39E0FA7BBB7B9A4235D26A
:100B7C0000233B732CE03B68002B06D1BA7B3B7BFC
:100B8C00D21A184B1B685A631CE03B68042B07D124
:100B9C00BA7B3B7BD11A134B1A680B46936311E05B
:100BAC003B68082B07D1BA7B3B7BD11A0D4B1A68DB
:100BBC000B46D36306E0BA7B3B7BD11A094B1A6810
:100BCC000B4613640F2002F049F83B7B01333B7357
:100BDC003A7BB97BFB7BCB1A9A42CCDB00BF10373C
:100BEC00BD4680BD8000002080B584B002AF786027
:100BFC003960534B1B68DC221A644FF47A7002F094
:100C0C002DF84F4B1B682D22DA634FF47A7002F0EB
:100C1C0025F84B4B1B682D229A634FF47A7002F027
:100C2C001DF8474B1B682D225A634FF47A7002F063
:100C3C0015F87B68DC221A717B682D225A717B684F
:100C4C002D229A717B682D22DA717B68D022DA70A2
:100C5C007B6880229A707B6850225A707B68DC22F9
:100C6C001A707B68012283F83A2008217868FFF714
:100C7C00EDFE04217868FFF7E9FE00217868FFF7A4
:100C8C00E5FE0C217868FFF7E1FE2E48FFF737FEF2
:100C9C002D48FFF734FEB32300937823A6227D2141
:100CAC002848FFF760FEB023009376239A22902108
:100CBC002448FFF758FEAD23009378238A229A210B
:100CCC002048FFF750FEA82300937A237A22AC2108
:100CDC001C48FFF748FEA623009384236622AC2110
:100CEC001848FFF740FE602300937823A6227D214D
:100CFC001548FFF738FE6823009376239A2290213B
:100D0C001148FFF730FE6D23009378238A229A2135
:100D1C000D48FFF728FE722300937A237A22AC2128
:100D2C000948FFF720FE7423009384236622AC212C
:100D3C000548FFF718FE00BF0837BD4680BD00BF51
:100D4C0080000020980100204002002080B582B075
:100D5C0000AF78600B46FB70FB780C2B00F2BB816C
:100D6C0001A252F823F000BFA1100008A90D000841
:100D7C00EB0D00082D0E00086F0E0008B10E0008D8
:100D8C00F30E0008350F0008770F0008B90F0008A4
:100D9C00FB0F00082D1000085F1000087B68AC22C8
:100DAC00DA707B6879229A707B687B225A707B6838
:100DBC009A221A707B68002283F83A200C217868FA
:100DCC00FFF744FE00217868FFF740FE04217868A5
:100DDC00FFF73CFE08217868FFF738FE7CE17B6862
:100DEC00B022DA707B687A229A707B687A225A7009
:100DFC007B688E221A707B68002283F83A200C21C3
:100E0C007868FFF723FE00217868FFF71FFE0421A6
:100E1C007868FFF71BFE08217868FFF717FE5BE187
:100E2C007B68B022DA707B6878229A707B687B22B0
:100E3C005A707B6880221A707B68002283F83A20F3
:100E4C000C217868FFF702FE00217868FFF7FEFDA1
:100E5C0004217868FFF7FAFD08217868FFF7F6FDA2
:100E6C003AE17B689022DA707B6896229A707B68F4
:100E7C0076225A707B689C221A707B68002283F859
:100E8C003A200C217868FFF7E1FD00217868FFF724
:100E9C00DDFD04217868FFF7D9FD08217868FFF79C
:100EAC00D5FD19E17B689022DA707B6896229A70E6
:100EBC007B6876225A707B688E221A707B680022BF
:100ECC0083F83A200C217868FFF7C0FD0021786880
:100EDC00FFF7BCFD04217868FFF7B8FD082178689E
:100EEC00FFF7B4FDF8E07B689022DA707B689522FE
:100EFC009A707B6876225A707B687E221A707B68A7
:100F0C00002283F83A200C217868FFF79FFD00211E
:100F1C007868FFF79BFD04217868FFF797FD08219F
:100F2C007868FFF793FDD7E07B688022DA707B68E6
:100F3C00A8229A707B6876225A707B689E221A705F
:100F4C007B68002283F83A200C217868FFF77EFD3D
:100F5C0000217868FFF77AFD04217868FFF776FDA9
:100F6C0008217868FFF772FDB6E07B688022DA70A2
:100F7C007B68AA229A707B6876225A707B688A22D8
:100F8C001A707B68002283F83A200C217868FFF7EE
:100F9C005DFD00217868FFF759FD04217868FFF7A3
:100FAC0055FD08217868FFF751FD95E07B6880229C
:100FBC00DA707B68A8229A707B6876225A707B68FC
:100FCC0078221A707B68002283F83A200C2178680A
:100FDC00FFF73CFD00217868FFF738FD04217868A5
:100FEC00FFF734FD08217868FFF730FD74E079686D
:100FFC003B48FFF7EAFC7B68002283F83A200C217F
:10100C007868FFF723FD00217868FFF71FFD0421A6
:10101C007868FFF71BFD08217868FFF717FD5BE088
:10102C0079683048FFF7D1FC7B68002283F83A20BE
:10103C000C217868FFF70AFD00217868FFF706FDA0
:10104C0004217868FFF702FD08217868FFF7FEFCA1
:10105C0042E07B68D022DA707B6880229A707B68D1
:10106C0050225A707B688D221A707B68012283F89B
:10107C003A2008217868FFF7E9FC04217868FFF72B
:10108C00E5FC00217868FFF7E1FC0C217868FFF79C
:10109C00DDFC21E07B68D022DA707B6880229A70BC
:1010AC007B6850225A707B68DC221A707B680122A4
:1010BC0083F83A2008217868FFF7C8FC0421786887
:1010CC00FFF7C4FC00217868FFF7C0FC0C2178689E
:1010DC00FFF7BCFC00E000BF00BF0837BD4680BD79
:1010EC00980100204002002080B500AF0C21174869
:1010FC0003F090FC0821154803F08CFC04211348E4
:10110C0003F088FC0021114803F084FC104B0022F2
:10111C009A720F490F48FFF767FD142001F09EFDEE
:10112C0001F012FA142001F099FD01F069FA642023
:10113C0001F094FD084B00221A70074B00225A70E4
:10114C00054B30229A7000BF80BD00BF800000208C
:10115C00E8020020F80200203803002080B584B09B
:10116C0002AF7860A24B002283F83820A04B0022FB
:10117C0083F839209F4B00225A7001F041FA00236A
:10118C0000939D4B9D4A0021002001F05EFC002342
:10119C000093994B9A4A0F21002001F056FC01F064
:1011AC003BFA0AE0934801F015F8924801F044F933
:1011BC00904B5A788E4B83F838208D4B93F83830FF
:1011CC00002BEFD08B4B00225A7001F019FA002340
:1011DC000093894B894A0021002001F036FC002342
:1011EC000093854B874A0F21002001F02EFC01F063
:1011FC0013FA0AE07F4800F0EDFF7E4801F01CF97D
:10120C007C4B5A787A4B83F83920794B93F83930E8
:10121C00002BEFD00C217648FFF798FD4FF4967019
:10122C0001F01CFD724B93F83830042B01D80A23C3
:10123C0000E00B2319466E48FFF788FD4FF49670BB
:10124C0001F00CFD01224FF400416F4802F075FAD9
:10125C004FF4967001F002FD0C216548FFF776FD06
:10126C004FF4967001F0FAFC614B93F83930194643
:10127C005F48FFF76BFD4FF4967001F0EFFC002216
:10128C004FF40041604802F058FA4FF4967001F0A8
:10129C00E5FC0C215648FFF759FD554B002283F80D
:1012AC003820534B002283F83920524B00225A70BD
:1012BC00504B00221A7001F0A3F9002300934E4BFF
:1012CC004E4A0021002001F0C0FB002300934A4B42
:1012DC004E4A0F21002001F0B8FB01F09DF90AE005
:1012EC00444800F077FF434801F0A6F8414B5A7888
:1012FC003F4B83F838203E4B93F83830002BEFD01F
:10130C003C4B00225A7001F07BF9002300933A4BBE
:10131C003A4A0021002001F098FB00230093364B41
:10132C003B4A0F21002001F090FB01F075F90AE017
:10133C00304800F04FFF2F4801F07EF82D4B5A78C3
:10134C002B4B83F839202A4B93F83930002BEFD0F4
:10135C000C212748FFF7FAFC4FF4967001F07EFC45
:10136C00234B93F83830042B01D80A2300E00B23CD
:10137C0019461F48FFF7EAFC4FF4967001F06EFC1B
:10138C0001224FF40041204802F0D7F94FF4967037
:10139C0001F064FC0C211648FFF7D8FC4FF4967052
:1013AC0001F05CFC124B93F8393019461048FFF7EA
:1013BC00CDFC4FF4967001F051FC00224FF400412B
:1013CC00114802F0BAF94FF4967001F047FC002175
:1013DC000748FFF7BBFC074B00225A70054B302225
:1013EC009A70044B00221A7000BF0837BD4680BDAE
:1013FC00F8020020380300204C730008D467000862
:10140C00E0670008F8670008001001401068000849
:10141C002868000880B584B002AF664800F0DAFE98
:10142C00644801F009F801F0EBF800230093624BDB
:10143C00624A0021002001F008FB002300935E4B60
:10144C005F4A0F21002001F000FB002300935A4B50
:10145C005C4A0F21202001F0F8FA01F0DDF8554B21
:10146C009B78312B41D10C215748FFF76FFC4FF47F
:10147C00967001F0F3FB0B215348FFF767FC4FF418
:10148C00967001F0EBFB01224FF400414F4802F043
:10149C0054F94FF4967001F0E1FB0C214A48FFF728
:1014AC0055FC4FF4967001F0D9FB05214648FFF727
:1014BC004DFC4FF4967001F0D1FB00224FF400412B
:1014CC00424802F03AF94FF4967001F0C7FB002144
:1014DC003D48FFF73BFC374B00225A70354B30220E
:1014EC009A70344B00221A7060E0324B9B78322B8E
:1014FC0006D10120FFF732FE0220FFF72FFE55E048
:10150C002C4B9B78342B2DD100212F48FFF71EFC40
:10151C004FF4967001F0A2FB2B4B002283F839207C
:10152C00022201212A4800F08FFA224B264A29492F
:10153C00274800F091FD0346DBB2FB71FB791033B9
:10154C00DBB2FB71F91D0A230122224804F026F9B3
:10155C00184B00225A70174B30229A70154B0022F0
:10156C001A7023E0134B9B78352B1FD10C21164896
:10157C00FFF7ECFB4FF4967001F070FB124B00225E
:10158C0083F8392001220221114800F05DFA094B41
:10159C000D4A10490E4800F05FFD064B00225A70B0
:1015AC00044B30229A70034B00221A7000BF08378C
:1015BC00BD4680BD380300204C730008406800080D
:1015CC004C6800083A030020F8020020001001408B
:1015DC003C030020C800002080B485B000AF7860C8
:1015EC0039600023FB6049E0FA6813465B00134442
:1015FC009B001A467B6813441968FA6813465B0013
:10160C0013449B001A467B6813445B68994232D1A1
:10161C00FA6813465B0013449B001A467B6813441C
:10162C005968FA6813465B0013449B001A467B68A2
:10163C0013449B6899421ED1FA6813465B0013440D
:10164C009B001A467B6813441B683A689A4201D186
:10165C0001238CE0FA6813465B0013449B001A4686
:10166C007B6813441A683B68C3F103039A4202D1A6
:10167C004FF0FF337BE0FB680133FB60FB68022B10
:10168C00B2DD0023BB602EE07B68BA6853F82220E1
:10169C007B680C33B96853F821309A4220D17B68AF
:1016AC000C33BA6853F822207B681833B96853F8A6
:1016BC0021309A4214D17B68BA6853F822303A68C8
:1016CC009A4201D1012352E07B68BA6853F8222078
:1016DC003B68C3F103039A4202D14FF0FF3346E05B
:1016EC00BB680133BB60BB68022BCDDD7B681A681D
:1016FC007B680C335B689A4218D17B680C335A6850
:10170C007B6818339B689A4210D17B681B683A68D7
:10171C009A4201D101232AE07B681A683B68C3F125
:10172C0003039A4202D14FF0FF3320E07B689A68A2
:10173C007B680C335B689A4218D17B680C335A680F
:10174C007B6818331B689A4210D17B689B683A6897
:10175C009A4201D101230AE07B689A683B68C3F185
:10176C0003039A4202D14FF0FF3300E000231846E6
:10177C001437BD4680BC704780B592B004AFF8609A
:10178C00B9607A603B60B96CF868FFF725FFF861C7
:10179C00FB69012B07D0FB69B3F1FF3F03D0BA689B
:1017AC007B6C9A4201D1FB69BBE03B6C002B5BD09C
:1017BC004FF000437B6300233B6350E00023FB624C
:1017CC0045E03A6B13465B0013449B001A46FB68DA
:1017DC001344FA6A53F82230002B35D13A6B134676
:1017EC005B0013449B001A46FB681344FA6AB96CFD
:1017FC0043F82210BB68591CBB6C02937B6C0193A1
:10180C00002300933B687A68F868FFF7B5FF7861AE
:10181C003A6B13465B0013449B001A46FB68134457
:10182C00FA6A002143F822107A6B7B699342B8BFA5
:10183C0013467B637A687B6B9342B8BF13467B601D
:10184C003A687B689A4206DDFB6A0133FB62FB6AED
:10185C00022BB6DD00E000BF3B6B01333B633B6BFF
:10186C00022BABDD7B6B5CE06FF00043BB620023B3
:10187C007B6252E000233B6247E07A6A13465B00CE
:10188C0013449B001A46FB6813443A6A53F82230FF
:10189C00002B37D17A6A13465B0013449B001A461F
:1018AC00FB681344BA6CC2F103013A6A43F8221084
:1018BC00BB68591CBB6C02937B6C01930123009396
:1018CC003B687A68F868FFF757FFB8617A6A134685
:1018DC005B0013449B001A46FB6813443A6A0021D0
:1018EC0043F82210BA6ABB699342A8BF1346BB6285
:1018FC003A68BB6A9342A8BF13463B603A687B6860
:10190C009A4206DD3B6A01333B623B6A022BB4DD33
:10191C0000E000BF7B6A01337B627B6A022BA9DD8E
:10192C00BB6A18463837BD4680BD80B58CB004AF55
:10193C00F860B9607A603B604FF00043FB610023B4
:10194C00BB614BE000237B6142E0BA6913465B004C
:10195C0013449B001A46FB6813447A6953F82230EF
:10196C00002B32D1BA6913465B0013449B001A4614
:10197C00FB6813447A69B96A43F82210BB6A029374
:10198C003B680193002300936FF000434FF000423B
:10199C000121F868FFF7F0FE3861BA6913465B0065
:1019AC0013449B001A46FB6813447A69002143F8E0
:1019BC0022103A69FB699A4207DD3B69FB61BB68FF
:1019CC00BA691A607B687A691A607B6901337B613A
:1019DC007B69022BB9DDBB690133BB61BB69022B8F
:1019EC00B0DD00BF00BF2037BD4680BD80B487B0DE
:1019FC0000AF786000237B6100233B611BE0002378
:101A0C00FB6012E03A6913465B0013449B001A46D4
:101A1C007B681344FA6853F82230002B02D07B69A0
:101A2C0001337B61FB680133FB60FB68022BE9DD52
:101A3C003B6901333B613B69022BE0DD7B69184656
:101A4C001C37BD4680BC704780B487B000AFF860CF
:101A5C00B9607A60FB6800221A60FB68BA685A6049
:101A6C00FB687A689A60FB680122DA6000237B616C
:101A7C0022E000233B6119E0F9687A6913465B00A8
:101A8C0013443A6913441433002241F82320F968B3
:101A9C007A6913465B0013443A6913440A339B007A
:101AAC000B4400225A603B6901333B613B69022BBA
:101ABC00E2DD7B6901337B617B69022BD9DD00BFE1
:101ACC0000BF1C37BD4680BC704780B483B000AFEC
:101ADC0078607B68DB68C3F103027B68DA6000BF67
:101AEC000C37BD4680BC704780B485B000AF7860C1
:101AFC000023FB6020E00023BB6017E07968FA68E4
:101B0C0013465B001344BA681344143351F8231082
:101B1C007868FA6813465B001344BA6813440A33B6
:101B2C009B0003445960BB680133BB60BB68022B4C
:101B3C00E4DDFB680133FB60FB68022BDBDD00BFDF
:101B4C0000BF1437BD4680BC7047000080B584B020
:101B5C0000AFF860B9607A60FB68DB68012B04D1D8
:101B6C000B217868FFF7F2F803E00A217868FFF799
:101B7C00EDF84FF4967001F071F801224FF400412A
:101B8C00154801F0DAFD4FF4967001F067F80C215E
:101B9C007868FFF7DBF84FF4967001F05FF8BB68DC
:101BAC00DBB219467868FFF7D1F84FF4967001F064
:101BBC0055F800224FF40041074801F0BEFD4FF4E8
:101BCC00967001F04BF800217868FFF7BFF80023FE
:101BDC0018461037BD4680BD0010014080B586B058
:101BEC0000AFF860B9607A603B607B68DBB2FB7574
:101BFC0007F117010A230122474803F0CFFDBB6808
:101C0C00DBB2FB7507F117010A230122424803F0EE
:101C1C00C5FDBB68013B414A82FB0312DB17D01A9E
:101C2C00BB68591E3D4B83FB0132CB17D21A1346AE
:101C3C005B001344CA1AF96803465B00034413445F
:101C4C00143351F82330002B30D17B68DBB21946AA
:101C5C003868FFF77BF801224FF40041304801F05F
:101C6C006CFD4FF4967000F0F9FF0C213868FFF70B
:101C7C006DF84FF4967000F0F1FFBB68DBB21946BB
:101C8C003868FFF763F84FF4967000F0E7FF002216
:101C9C004FF40041224801F050FD4FF4967000F0D3
:101CAC00DDFF00213868FFF751F82FE0BB68DBB28D
:101CBC0019463868FFF74AF801224FF400411848DA
:101CCC0001F03BFD4FF4967000F0C8FF0C21386812
:101CDC00FFF73CF84FF4967000F0C0FF7B68DBB266
:101CEC0019463868FFF732F84FF4967000F0B6FFDB
:101CFC0000224FF400410A4801F01FFD4FF496708A
:101D0C0000F0ACFF00213868FFF720F800231846DC
:101D1C001837BD4680BD00BFC8000020565555552C
:101D2C000010014080B48BB000AFF860B9607A60ED
:101D3C0000237B6200233B620023FB613BE000231A
:101D4C00BB6132E0F968FA6913465B001344BA6967
:101D5C0013440A339B000B445B68002B22D0F968B8
:101D6C00FA6913465B001344BA6913440A339B00A7
:101D7C000B445968F868FA6913465B001344BA6956
:101D8C001344143350F8233099420BD0F968FA6994
:101D9C0013465B001344BA6913440A339B000B448B
:101DAC005B683B62BB690133BB61BB69022BC9DD5C
:101DBC00FB690133FB61FB69022BC0DD3B6A002B25
:101DCC005DD000237B6157E000233B614EE0F96856
:101DDC007A6913465B0013443A6913440A339B0037
:101DEC000B445B683A6A9A420BD1F9687A691346DC
:101DFC005B0013443A691344143351F82330002B1D
:101E0C0019D0F9687A6913465B0013443A69134494
:101E1C000A339B000B445B68002B24D1F9687A6968
:101E2C0013465B0013443A691344143351F82330BE
:101E3C003A6A9A4217D17B6A5A1C7A62002B09D0F3
:101E4C007A6913465B001A443B6913445A1C7B683D
:101E5C001A6008E07A6913465B001A443B69134424
:101E6C005A1CBB681A603B6901333B613B69022B0E
:101E7C00ADDD7B6901337B617B69022BA4DD3B6AA1
:101E8C0018462C37BD4680BC7047000090B587B013
:101E9C0000AFF860B9607A60FB68B1229A77FB6892
:101EAC0003F11E010A230122B86803F077FCFB68DA
:101EBC001F330A221946B86803F0F3FCFB6893F849
:101ECC002830B12BF3D100237B611FE0FA687B69CA
:101EDC0013441F331C787B69244A82FB0312DB17E3
:101EEC00D01A7969214B83FB0132CB17D21A1346D6
:101EFC005B001344CA1AF96803465B00034413449D
:101F0C00143341F823407B6901337B617B69082BD7
:101F1C00DCDDFB68002283F82820FB68B0229A776E
:101F2C00FB6803F11E010A230122B86803F036FC9A
:101F3C00FB6803F11401FB6818331A46F868FFF7C5
:101F4C00F1FE0346002B0BD0FB685969FB689A69BC
:101F5C007B68F868FFF742FEF868FFF7B6FD02E011
:101F6C00F868FFF7C1FD1C37BD4690BD5655555559
:101F7C0080B485B000AFF860B9607A60FB681B680C
:101F8C00012B01D0002362E0FB681B6D002B06D0F7
:101F9C00BB6801221A607B6801221A6056E0FB685C
:101FAC005B6D002B06D0BB6800221A607B68002298
:101FBC001A604BE0FB689B6D002B06D0BB680122BE
:101FCC001A607B6801221A6040E0FB68DB6D002B15
:101FDC0006D0BB6800221A607B6800221A6035E0CC
:101FEC00FB681B6E002B06D0BB6800221A607B6856
:101FFC0000221A602AE0FB685B6E002B06D0BB68DF
:10200C0000221A607B6802221A601FE0FB689B6E3C
:10201C00002B06D0BB6801221A607B6801221A6073
:10202C0014E0FB68DB6E002B06D0BB6800221A6044
:10203C007B6801221A6009E0FB681B6F002B05D03E
:10204C00BB6801221A607B6801221A6001231846C2
:10205C001437BD4680BC704790B589B002AFF860AC
:10206C00B9607A603B6092E0FB68DA68FB685B6899
:10207C009A4221D100F0C4FA00230093514B524AEA
:10208C000021002000F0E1FC00F0C6FA0AE03868FC
:10209C0000F0A0F8386800F0CFF93B685A787B68FC
:1020AC0083F839207B6893F83930002BEFD07B68AC
:1020BC00002283F8392051E000F0A2FA00230093AB
:1020CC00404B424A0021002000F0BFFC00F0A4FA73
:1020DC00FB681B68002B05D17A680521F868FFF7AF
:1020EC0035FD3BE0FB6803F11401FB6818331A461D
:1020FC00F868FFF73DFF0346002B0ED0FB685A69CA
:10210C0013465B001A44FB689B69134401337A68DD
:10211C001946F868FFF71AFD20E0FB6803F1500040
:10212C00FB6803F11401FB6803F11802FB681B68E0
:10213C00C3F10904FB689B6800932346FFF7F5FB8A
:10214C00FB685A6913465B001A44FB689B6913448D
:10215C0001337A681946F868FFF7F8FC7A68B968B1
:10216C00F868FFF793FEFB6850331846FFF73EFC08
:10217C000246FB681A600123FB7507F117010A235D
:10218C000122134803F00AFBF868FFF79EFCFB687A
:10219C001B68082B10DCFB6803F15002FB685B68C2
:1021AC0019461046FFF718FA0246FB681A61FB68DD
:1021BC001B69002B3FF458AFFB681B6918461C3792
:1021CC00BD4690BD4C730008546800086468000854
:1021DC00C800002080B582B000AF78607B681B78A7
:1021EC00012B00F020810121914801F08FFA034668
:1021FC00002B12D10A2000F031FD01218C4801F096
:10220C0085FA0346002B08D17B6801221A707B6883
:10221C0000225A707B6830229A700221844801F0A7
:10222C0075FA0346002B15D10A2000F017FD022188
:10223C007F4801F06BFA0346002B0BD17B6801221F
:10224C001A707B6801225A707B685B783033DAB283
:10225C007B689A700421764801F058FA0346002BEB
:10226C0015D10A2000F0FAFC0421714801F04EFA55
:10227C000346002B0BD17B6801221A707B6802226B
:10228C005A707B685B783033DAB27B689A700821BD
:10229C00674801F03BFA0346002B15D10A2000F0E9
:1022AC00DDFC0821624801F031FA0346002B0BD10A
:1022BC007B6801221A707B6803225A707B685B78FA
:1022CC003033DAB27B689A701021594801F01EFA4B
:1022DC000346002B15D10A2000F0C0FC10215448F5
:1022EC0001F014FA0346002B0BD17B6801221A7003
:1022FC007B6804225A707B685B783033DAB27B6877
:10230C009A7020214A4801F001FA0346002B15D19E
:10231C000A2000F0A3FC2021454801F0F7F9034600
:10232C00002B0BD17B6801221A707B6805225A7036
:10233C007B685B783033DAB27B689A7040213C481A
:10234C0001F0E4F90346002B15D10A2000F086FCBD
:10235C004021374801F0DAF90346002B0BD17B689A
:10236C0001221A707B6806225A707B685B783033C6
:10237C00DAB27B689A7080212D4801F0C7F90346C8
:10238C00002B15D10A2000F069FC8021284801F0AF
:10239C00BDF90346002B0BD17B6801221A707B68B8
:1023AC0007225A707B685B783033DAB27B689A709C
:1023BC000121204801F0AAF90346002B15D10A206F
:1023CC0000F04CFC01211B4801F0A0F90346002B46
:1023DC000BD17B6801221A707B6808225A707B68CB
:1023EC005B783033DAB27B689A700221114801F0C5
:1023FC008DF90346002B17D10A2000F02FFC022187
:10240C000C4801F083F90346002B0DD17B680122A7
:10241C001A707B6809225A707B685B783033DAB2A9
:10242C007B689A7000E000BF0837BD4680BD00BFD6
:10243C0000080140000C014080B582B000AF78600C
:10244C007B681B78002B4FD00121294801F05EF9E5
:10245C000346012B49D10221254801F057F90346C7
:10246C00012B42D10421224801F050F90346012BE3
:10247C003BD108211E4801F049F90346012B34D108
:10248C0010211B4801F042F90346012B2DD12021CC
:10249C00174801F03BF90346012B26D14021144883
:1024AC0001F034F90346012B1FD18021104801F0B3
:1024BC002DF90346012B18D101210E4801F026F904
:1024CC000346012B11D102210A4801F01FF90346E2
:1024DC00012B0AD17B6800221A707B6800225A708B
:1024EC007B6830229A7000E000BF0837BD4680BD83
:1024FC0000080140000C014080B584B002AF786048
:10250C000B46FB70FB789BB24FF0FF3200927A685F
:10251C007821034801F06EFA00BF0837BD4680BD34
:10252C002C00002080B582B000AF0346FB71054A39
:10253C00FB79537002210348FFF7DEFF00BF083719
:10254C00BD4680BDB007002080B500AFAE20FFF7C0
:10255C00E9FF2020FFF7E6FF1020FFF7E3FFB02094
:10256C00FFF7E0FFC820FFF7DDFF0020FFF7DAFFE1
:10257C001020FFF7D7FF4020FFF7D4FF8120FFF793
:10258C00D1FFDF20FFF7CEFFA120FFF7CBFFA62066
:10259C00FFF7C8FFA820FFF7C5FF3F20FFF7C2FFDA
:1025AC00A420FFF7BFFFD320FFF7BCFF0020FFF7ED
:1025BC00B9FFD520FFF7B6FFF020FFF7B3FFD92006
:1025CC00FFF7B0FF2220FFF7ADFFDA20FFF7AAFFDD
:1025DC001220FFF7A7FFDB20FFF7A4FF2020FFF757
:1025EC00A1FF8D20FFF79EFF1420FFF79BFF00F04B
:1025FC0007F800F011F8AF20FFF794FF00BF80BD83
:10260C0080B500AF4FF480620021024804F096F8C8
:10261C0000BF80BDB003002080B582B000AF154B69
:10262C0040221A700023FB711BE0FB79503BDBB29C
:10263C001846FFF777FF0020FFF774FF1020FFF715
:10264C0071FF0D48FB79DB010C4A134480221946BB
:10265C0004F0A0F881210748FFF74EFFFB79013306
:10266C00FB71FB79072BE0D900BF00BF0837BD46D3
:10267C0080BD00BFB4070020B5070020B0030020C8
:10268C0090B482B000AF0446084611461A46234661
:10269C00FB710346BB710B467B7113463B71FB7997
:1026AC00072B60D897F90630002B5CDB3B7D002BA9
:1026BC0002D07B79DB437B713B7C0133FF2202FA36
:1026CC0003F35AB297F9053013435AB23B79C3F16D
:1026DC000803FF2141FA03F35BB213435BB2DAB296
:1026EC00234B1A70FA79BB792249D2010A4413445C
:1026FC0018781F4B1978FA79BB790140C8B21D497B
:10270C00D2010A44134402461A703B7C0133FF2267
:10271C0002FA03F35BB2DB435AB297F9053013406C
:10272C005AB23B79C3F10803FF2141FA03F35BB2C0
:10273C00DB435BB213405BB2DAB20D4B1A70FA7921
:10274C00BB790C49D2010A4413441878084B197808
:10275C00FA79BB790143C8B20649D2010A44134441
:10276C0002461A7000E000BF0837BD4690BC7047A7
:10277C0035080020B0030020B0B586B002AF044687
:10278C00084611461A462346FB710346BB710B469D
:10279C007B7113463B71BB79DB08FB73BB7903F090
:1027AC000703BB73BA7B3B791344082B29DD7A7979
:1027BC00BB7B02FA03F3DAB2BC7BF979F87B97F8AE
:1027CC0020300193072300932346FFF759FFFB7B2F
:1027DC000133D8B27A79BB7BC3F1080342FA03F315
:1027EC00DCB23A79BB7B1344DBB2093BDBB2F9793F
:1027FC0097F820200192009300232246FFF740FF18
:10280C0015E07A79BB7B02FA03F3DCB2BA7B3B7935
:10281C001344DBB2013BDBB2BD7BF979F87B97F853
:10282C002020019200932B462246FFF729FF00BF80
:10283C001037BD46B0BD90B587B002AF0446084610
:10284C0011461A462346FB710346BB710B467B713E
:10285C0013463B71BB79DB08FB73BB7903F00703B1
:10286C00BB737A79BB7B02FA03F3DAB2BC7BF979DE
:10287C00F87B3B790193072300932346FFF700FF76
:10288C00BB7B002B14D0FB7B0133D8B27A79BB7B9A
:10289C00C3F1080342FA03F3DCB2BB7B013BDBB2AE
:1028AC00F9793A790192009300232246FFF7E8FE6A
:1028BC0000BF1437BD4690BD90B587B002AF3A60EB
:1028CC001A460346FB710B46BB7113467B7197F896
:1028DC002030DB083B7397F8203003F00703FB72C2
:1028EC000023FB7325E00023BB731BE0FA79FB7B11
:1028FC001344D8B2BB7BDB00DAB2BB791344DCB235
:10290C00FA7BBB7B797901FB03F313441A463B68D2
:10291C0013441A7897F824302146FFF78CFFBB7BC1
:10292C000133BB73BA7B3B7B9A42DFD3FB7B013316
:10293C00FB73FA7B7B799A42D5D3FB7A002B28D098
:10294C007B799BB23A7B92B202FB03F33B8100236F
:10295C007B731AE0FA797B7B1344D8B23B7BDB00A8
:10296C00DAB2BB791344D9B23A897B7B13441A4649
:10297C003B6813441A78FC7A97F82430009323466A
:10298C00FFF7FAFE7B7B01337B737A7B7B799A4270
:10299C00E0D300BF1437BD4690BDB0B584B002AFD4
:1029AC003B600346FB710B46BB7113467B713B6866
:1029BC005A687B79A3F120013B681B780733002B05
:1029CC0000DA0733DB1018463B685B7800FB03F337
:1029DC0001FB03F3D4183B685D783B681B78B9792D
:1029EC00F8793A7E019200932B462246FFF764FF5A
:1029FC0000BF0837BD46B0BD80B483B000AF78606F
:102A0C007B681B785BB2002B01DB012318E07B6831
:102A1C001B7803F0E003C02B01D1022310E07B688C
:102A2C001B7803F0F003E02B01D1032308E07B6853
:102A3C001B7803F0F803F02B01D1042300E00023F2
:102A4C0018460C37BD4680BC7047B0B58AB002AF93
:102A5C00BA607B600346FB730B46BB730023FB839E
:102A6C007B681B780733002B00DA0733DB10DBB2F3
:102A7C007A68527802FB03F3DBB20433FB767DE019
:102A8C0000237B77FB8BBA6813441846FFF7B4FF1F
:102A9C000346BB76BB7E002B78D000233B7732E01D
:102AAC007B685B683A7FF97E01FB02F213447B6121
:102ABC00FB8BBA681344BA7E7969184603F02EFE74
:102ACC000346002B1CD17B691C1D7B685D787B68E1
:102ADC001B78B97BF87B97F83020019200932B463A
:102AEC002246FFF7E9FE7B685A78FB7B1344FB73A5
:102AFC00BB7E9AB2FB8B1344FB8301237B7707E0ED
:102B0C003B7F01333B777B681B7A3A7F9A42C7D372
:102B1C007B7F002B32D1BB7E012B19D1FB8BBA688A
:102B2C0013441A787B68DC68B97BF87B97F83030F3
:102B3C0000932346FFF731FF7B68DB685A78FB7BF9
:102B4C001344FB73BB7E9AB2FB8B1344FB8315E0DF
:102B5C007B68DA68B97BF87B97F8303000931346C2
:102B6C002022FFF71AFF7B68DB685A78FB7B134443
:102B7C00FB73BB7E9AB2FB8B1344FB83FB8BBA6853
:102B8C0013441B78002B7FF47BAF00E000BF00BF29
:102B9C002037BD46B0BD000080B500AF084B1B68A8
:102BAC00074A43F010031360032000F047F900209C
:102BBC0000F008F8FDF72CFC0023184680BD00BF80
:102BCC000020024080B582B000AF7860124B1A68CA
:102BDC00124B1B7819464FF47A73B3FBF1F3B2FB2B
:102BEC00F3F3184600F05FF90346002B01D00123E4
:102BFC000EE07B680F2B0AD8002279684FF0FF306B
:102C0C0000F027F9064A7B681360002300E00123DB
:102C1C0018460837BD4680BD000000200800002083
:102C2C000400002080B400AF054B1B781A46054BFE
:102C3C001B681344034A136000BFBD4680BC704739
:102C4C00080000203808002080B400AF024B1B683D
:102C5C001846BD4680BC70473808002080B584B04B
:102C6C0000AF7860FFF7F0FFB8607B68FB60FB6833
:102C7C00B3F1FF3F05D00A4B1B781A46FB6813448F
:102C8C00FB6000BFFFF7E0FF0246BB68D31AFA688F
:102C9C009A42F7D800BF00BF1037BD4680BD00BFB9
:102CAC000800002080B485B000AF78607B6803F02A
:102CBC000703FB600C4BDB68BB60BA684FF6FF0385
:102CCC001340BB60FB681A02BB68134343F0BF633D
:102CDC0043F40033BB60044ABB68D36000BF1437B5
:102CEC00BD4680BC704700BF00ED00E080B400AF73
:102CFC00044BDB681B0A03F007031846BD4680BC77
:102D0C00704700BF00ED00E080B483B000AF034615
:102D1C00FB7197F90730002B0BDBFB7903F01F02DB
:102D2C00064997F907305B09012000FA02F241F8D5
:102D3C00232000BF0C37BD4680BC704700E100E08B
:102D4C0080B483B000AF03463960FB7197F907304C
:102D5C00002B0ADB3B68DAB20C4997F907301201F9
:102D6C00D2B20B4483F800230AE03B68DAB208497C
:102D7C00FB7903F00F03043B1201D2B20B441A7619
:102D8C0000BF0C37BD4680BC704700BF00E100E0BF
:102D9C0000ED00E080B489B000AFF860B9607A60F3
:102DAC00FB6803F00703FB61FB69C3F10703042B0A
:102DBC0028BF0423BB61FB690433062B02D9FB69D2
:102DCC00033B00E000237B614FF0FF32BB6902FA4A
:102DDC0003F3DA43BB681A407B699A404FF0FF312A
:102DEC007B6901FA03F3D9437B680B401343184604
:102DFC002437BD4680BC704780B582B000AF786088
:102E0C007B68013BB3F1807F01D301230FE00A4AB9
:102E1C007B68013B53600F214FF0FF30FFF790FFB1
:102E2C00054B00229A60044B07221A6000231846B7
:102E3C000837BD4680BD00BF10E000E080B582B011
:102E4C0000AF78607868FFF72DFF00BF0837BD46EC
:102E5C0080BD80B586B000AF0346B9607A60FB7365
:102E6C0000237B61FFF742FF78617A68B968786963
:102E7C00FFF790FF024697F90F3011461846FFF7FF
:102E8C005FFF00BF1837BD4680BD80B582B000AF74
:102E9C000346FB7197F907301846FFF735FF00BF63
:102EAC000837BD4680BD80B582B000AF78607868C9
:102EBC00FFF7A2FF034618460837BD4680BD000049
:102ECC0080B485B000AF78600023FB607B68002B7A
:102EDC0001D1012343E07B681B681A46224B134443
:102EEC00224AA2FB03231B099A007B681A647B68A5
:102EFC001F4ADA637B68022283F821207B681B68F7
:102F0C001B68FB60FB6823F47F5323F03003FB60EA
:102F1C007B685A687B689B681A437B68DB681A433A
:102F2C007B681B691A437B685B691A437B689B69E6
:102F3C001A437B68DB691343FA681343FB607B68B5
:102F4C001B68FA681A607B6800229A637B6801220E
:102F5C0083F821207B68002283F820200023184668
:102F6C001437BD4680BC7047F8FFFDBFCDCCCCCC30
:102F7C000000024080B586B000AFF860B9607A609E
:102F8C003B600023FB75FB6893F82030012B01D1CB
:102F9C0002234BE0FB68012283F82020FB6893F8A6
:102FAC002130DBB2012B3AD1FB68022283F82120BD
:102FBC00FB6800229A63FB681B681A68FB681B6835
:102FCC0022F001021A603B687A68B968F86800F070
:102FDC00EBF9FB68DB6A002B08D0FB681B681A68EE
:102FEC00FB681B6842F00E021A600FE0FB681B685E
:102FFC001A68FB681B6822F004021A60FB681B68E5
:10300C001A68FB681B6842F00A021A60FB681B68AE
:10301C001A68FB681B6842F001021A6005E0FB6845
:10302C00002283F820200223FB75FB7D18461837FD
:10303C00BD4680BD80B485B000AF78600023FB73C3
:10304C007B6893F82130DBB2022B08D07B6804221A
:10305C009A637B68002283F82020012320E07B68A0
:10306C001B681A687B681B6822F00E021A607B686A
:10307C001B681A687B681B6822F001021A607B6867
:10308C001A6C7B68DB6B012101FA02F25A607B68D7
:10309C00012283F821207B68002283F82020FB7B0F
:1030AC0018461437BD4680BC7047000080B584B00C
:1030BC0000AF78600023FB737B6893F82130DBB2A0
:1030CC00022B05D07B6804229A630123FB7351E029
:1030DC007B681B681A687B681B6822F00E021A60FA
:1030EC007B681B681A687B681B6822F001021A60F7
:1030FC007B681B68224A934229D07B681B68214A53
:10310C00934222D07B681B681F4A93421AD07B687B
:10311C001B681E4A934212D07B681B681C4A934260
:10312C000AD07B681B681B4A934202D14FF4801370
:10313C000EE04FF080730BE04FF4803308E04FF457
:10314C00805305E04FF4807302E0102300E001236C
:10315C00114A53607B68012283F821207B6800228E
:10316C0083F820207B685B6B002B03D07B685B6B48
:10317C0078689847FB7B18461037BD4680BD00BF6A
:10318C00080002401C000240300002404400024093
:10319C00580002406C0002400000024080B584B030
:1031AC0000AF78607B68DB6B1B68FB607B681B681F
:1031BC001B68BB607B681B6C04229A40FB68134045
:1031CC00002B4FD0BB6803F00403002B4AD07B6864
:1031DC001B681B6803F02003002B07D17B681B685E
:1031EC001A687B681B6822F004021A607B681B68F3
:1031FC00664A934229D07B681B68654A934222D069
:10320C007B681B68634A93421AD07B681B68624ACE
:10321C00934212D07B681B68604A93420AD07B6849
:10322C001B685F4A934202D14FF480030EE04FF0CB
:10323C0080630BE04FF4802308E04FF4804305E0FB
:10324C004FF4806302E0402300E00423554A5360AE
:10325C007B68DB6A002B00F094807B68DB6A786803
:10326C0098478EE07B681B6C02229A40FB681340E7
:10327C00002B56D0BB6803F00203002B51D07B68A7
:10328C001B681B6803F02003002B0BD17B681B68A9
:10329C001A687B681B6822F00A021A607B6801229C
:1032AC0083F821207B681B68384A934229D07B68BD
:1032BC001B68374A934222D07B681B68354A93427D
:1032CC001AD07B681B68344A934212D07B681B6807
:1032DC00324A93420AD07B681B68314A934202D12E
:1032EC004FF400130EE04FF000730BE04FF400337B
:1032FC0008E04FF4005305E04FF4007302E0202384
:10330C0000E00223274A53607B68002283F82020C8
:10331C007B689B6A002B34D07B689B6A78689847E3
:10332C002FE07B681B6C08229A40FB681340002B33
:10333C0028D0BB6803F00803002B23D07B681B68E4
:10334C001A687B681B6822F00E021A607B681A6C84
:10335C007B68DB6B012101FA02F25A607B68012267
:10336C009A637B68012283F821207B68002283F812
:10337C0020207B681B6B002B04D07B681B6B786850
:10338C00984700BF00BF1037BD4680BD0800024003
:10339C001C00024030000240440002405800024031
:1033AC006C0002400000024080B485B000AFF860B1
:1033BC00B9607A603B60FB681A6CFB68DB6B0121BF
:1033CC0001FA02F25A60FB681B683A685A60FB68A3
:1033DC005B68102B08D1FB681B687A689A60FB68E5
:1033EC001B68BA68DA6007E0FB681B68BA689A6009
:1033FC00FB681B687A68DA6000BF1437BD4680BC76
:10340C007047000080B48BB000AF78603960002347
:10341C007B6200233B6269E101227B6A02FA03F3BF
:10342C00FB613B681B68FA691340BB61BA69FB69B5
:10343C009A4240F058813B685B689A4A93425ED04E
:10344C00984A934275D8984A934258D0964A9342D8
:10345C006FD8964A934252D0944A934269D8944A70
:10346C0093424CD0924A934263D8924A934246D0AC
:10347C00904A93425DD8122B2AD8122B59D801A20C
:10348C0052F823F00B350008E5340008F734000837
:10349C00393500083F3500083F3500083F35000836
:1034AC003F3500083F3500083F3500083F35000820
:1034BC003F3500083F3500083F3500083F35000810
:1034CC003F3500083F350008ED3400080135000891
:1034DC00794A934213D02CE03B68DB683B6229E0CD
:1034EC003B68DB6804333B6224E03B68DB680833F1
:1034FC003B621FE03B68DB680C333B621AE03B68C5
:10350C009B68002B02D104233B6213E03B689B6851
:10351C00012B05D108233B627B68FA691A6109E02B
:10352C0008233B627B68FA695A6103E000233B6223
:10353C0000E000BFBB69FF2B01D87B6801E07B6812
:10354C0004337B61BB69FF2B02D87B6A9B0002E0D2
:10355C007B6A083B9B003B617B691A680F213B69C6
:10356C0001FA03F3DB431A40396A3B6901FA03F3AE
:10357C001A437B691A603B685B6803F08053002B2D
:10358C0000F0B1804D4B9B694C4A43F001039361B1
:10359C004A4B9B6903F00103BB60BB68484A7B6ADA
:1035AC009B08023352F82330FB607B6A03F0030361
:1035BC009B000F2202FA03F3DB43FA681340FB6013
:1035CC007B68404A934213D07B683F4A93420DD0AC
:1035DC007B683E4A934207D07B683D4A934201D1B7
:1035EC00032306E0042304E0022302E0012300E0AD
:1035FC0000237A6A02F0030292009340FA681343A4
:10360C00FB602F497B6A9B080233FA6841F8232040
:10361C003B685B6803F48013002B06D02D4B9A6833
:10362C002C49BB6913438B6006E02A4B9A68BB6933
:10363C00DB43284913408B603B685B6803F4001341
:10364C00002B06D0234BDA682249BB691343CB60AD
:10365C0006E0204BDA68BB69DB431E491340CB60A4
:10366C003B685B6803F40033002B06D0194B5A6897
:10367C001849BB6913434B6006E0164B5A68BB698B
:10368C00DB43144913404B603B685B6803F48033A5
:10369C00002B21D00F4B1A680E49BB6913430B60EA
:1036AC0021E000BF00003210000031100000221099
:1036BC000000211000001210000011100010024038
:1036CC000000014000080140000C014000100140C6
:1036DC0000140140000401400B4B1A68BB69DB432A
:1036EC00094913400B607B6A01337B623B681A68A3
:1036FC007B6A22FA03F3002B7FF48EAE00BF00BF6F
:10370C002C37BD4680BC70470004014080B485B0A6
:10371C0000AF78600B467B807B689A687B8813408F
:10372C00002B02D00123FB7301E00023FB73FB7B16
:10373C0018461437BD4680BC704780B483B000AFC8
:10374C0078600B467B8013467B707B78002B03D014
:10375C007A887B681A6103E07B881A047B681A619B
:10376C0000BF0C37BD4680BC7047000080B584B0EC
:10377C0000AF78607B68002B01D101232BE17B68C3
:10378C0093F83D30DBB2002B06D17B68002283F826
:10379C003C207868FCF79CFD7B68242283F83D2054
:1037AC007B681B681A687B681B6822F001021A6030
:1037BC007B681B681A687B681B6842F400421A60BD
:1037CC007B681B681A687B681B6822F400421A60CD
:1037DC0001F032F8F8607B685B68814A934207D845
:1037EC00FB68804A934294BF01230023DBB206E0BE
:1037FC00FB687D4A934294BF01230023DBB2002B6C
:10380C0001D00123E7E0FB68784AA2FB03239B0C61
:10381C00BB607B681B685B6823F03F017B681B689F
:10382C00BA680A435A607B681B681B6A23F03F0125
:10383C007B685B686A4A934202D8BB68013309E033
:10384C00BB684FF4967202FB03F3694AA2FB032395
:10385C009B0901337A6812680B4313627B681B68FF
:10386C00DB6923F44F4222F0FF027B685B685C4902
:10387C008B4219D8FB68591E7B685B685B00B1FBF7
:10388C00F3F3591C40F6FC730B40002B0AD0FB6879
:10389C00591E7B685B685B00B1FBF3F30133C3F328
:1038AC000B0351E004234FE07B689B68002B11D184
:1038BC00FB68581E7B6859680B465B000B44B0FBD9
:1038CC00F3F30133C3F30B03002B0CBF01230023D1
:1038DC00DBB212E0FB68581E7B6859680B469B00F4
:1038EC000B4499000B44B0FBF3F30133C3F30B030C
:1038FC00002B0CBF01230023DBB2002B01D00123D2
:10390C0022E07B689B68002B0ED1FB68581E7B68FD
:10391C0059680B465B000B44B0FBF3F30133C3F364
:10392C000B0343F400430FE0FB68581E7B68596897
:10393C000B469B000B4499000B44B0FBF3F3013393
:10394C00C3F30B0343F44043796809681343CB6119
:10395C007B681B681B6823F0C0017B68DA697B6895
:10396C001B6A1A437B681B680A431A607B681B68D6
:10397C009B6823F4034323F0FF037A6811697A6888
:10398C00D26811437A6812680B4393607B681B689A
:10399C00DB6823F0FF017B685A697B689B691A43DB
:1039AC007B681B680A43DA607B681B681A687B6853
:1039BC001B6842F001021A607B6800221A647B6863
:1039CC00202283F83D207B6800221A637B6800224A
:1039DC0083F83E20002318461037BD4680BD00BF3B
:1039EC00A08601007F841E00FF083D0083DE1B4380
:1039FC00D34D621080B588B002AFF8607A601A4679
:103A0C000B467B8113463B81FFF71EF97861FB68FF
:103A1C0093F83D30DBB2202B40F0E0807B690093C3
:103A2C00192301227049F86800F064F90346002B51
:103A3C0001D00223D3E0FB6893F83C30012B01D179
:103A4C000223CCE0FB68012283F83C20FB681B6856
:103A5C001B6803F00103012B07D0FB681B681A6875
:103A6C00FB681B6842F001021A60FB681B681A684D
:103A7C00FB681B6822F400621A60FB68212283F841
:103A8C003D20FB68102283F83E20FB6800221A645C
:103A9C00FB687A685A62FB683A895A85FB685B8DC9
:103AAC009AB2FB681A85FB68504ADA6279897B699D
:103ABC003A6AF86800F09CF80346002B01D0012309
:103ACC008DE000233B61FB681B685B693B61FB6815
:103ADC001B689B693B613B6966E07A69396AF868E7
:103AEC0000F022FA0346002B0DD0FB681B6C042B54
:103AFC0007D1FB681B681A68FB681B6842F40072EC
:103B0C001A6001236BE0FB685B6A1A78FB681B6820
:103B1C001A61FB685B6A5A1CFB685A62FB685B8D16
:103B2C009BB2013B9AB2FB685A85FB681B8D013B2B
:103B3C009AB2FB681A85FB681B685B6903F0040387
:103B4C00042B1BD1FB681B8D002B17D0FB685B6A09
:103B5C001A78FB681B681A61FB685B6A5A1CFB6865
:103B6C005A62FB685B8D9BB2013B9AB2FB685A852B
:103B7C00FB681B8D013B9AB2FB681A857A69396A1E
:103B8C00F86800F019FA0346002B0DD0FB681B6C8B
:103B9C00042B07D1FB681B681A68FB681B6842F48E
:103BAC0000721A6001231AE0FB681B8D002B94D164
:103BBC00FB681B681A68FB681B6842F400721A6089
:103BCC00FB68202283F83D20FB68002283F83E200E
:103BDC00FB68002283F83C20002300E002231846F7
:103BEC001837BD4680BD00BF020010000000FFFF6B
:103BFC0080B588B002AFF8607A603B600B467B8181
:103C0C00FB68DB6A7B617B69082B06D07B69012B27
:103C1C0003D07B6913F5803F08D1FB681B681A68D9
:103C2C00FB681B6842F480721A600BE0FB681B6B2C
:103C3C00122B07D1FB681B681A68FB681B6842F4DF
:103C4C0080721A603B6800937B6800224FF0011170
:103C5C00F86800F04FF80346002B0DD0FB681B688A
:103C6C001B6803F48073B3F5807F03D1FB684FF4BA
:103C7C0000721A64032335E0FB681B69B3F5804FAF
:103C8C0008D17B89DBB21A46FB681B6802F0FE0286
:103C9C001A611BE07B89DB11DBB203F00603DBB29C
:103CAC0063F00F03DAB2FB681B681A613B687A6831
:103CBC000E49F86800F098F80346002B01D0012358
:103CCC0010E07B89DAB2FB681B681A613B687A6882
:103CDC000749F86800F088F80346002B01D001234F
:103CEC0000E0002318461837BD4680BD08000100CF
:103CFC000200010080B584B000AFF860B9603B6091
:103D0C001346FB7148E03B68B3F1FF3F44D0FEF72C
:103D1C009BFF0246BB69D31A3A689A4202D33B68AE
:103D2C00002B39D1BB681B0CDBB2012B0DD1FB680E
:103D3C001B685B69DA43BB6813409BB2002B0CBF5A
:103D4C0001230023DBB21A460CE0FB681B689B695D
:103D5C00DA43BB6813409BB2002B0CBF012300233A
:103D6C00DBB21A46FB799A4216D1FB6800221A6321
:103D7C00FB68202283F83D20FB68002283F83E205C
:103D8C00FB681B6C43F02002FB681A64FB68002282
:103D9C0083F83C20012323E0BB681B0CDBB2012B16
:103DAC000DD1FB681B685B69DA43BB6813409BB29F
:103DBC00002B0CBF01230023DBB21A460CE0FB687E
:103DCC001B689B69DA43BB6813409BB2002B0CBF8A
:103DDC0001230023DBB21A46FB799A4293D00023CD
:103DEC0018461037BD4680BD80B584B000AFF86072
:103DFC00B9607A603B6071E0FB681B685B6903F437
:103E0C008063B3F5806F23D1FB681B681A68FB686D
:103E1C001B6842F400721A60FB681B686FF48062C6
:103E2C005A61FB6800221A63FB68202283F83D204C
:103E3C00FB68002283F83E20FB681B6C43F00402F5
:103E4C00FB681A64FB68002283F83C20012367E0BE
:103E5C007B68B3F1FF3F41D0FEF7F6FE02463B68AC
:103E6C00D31A7A689A4202D37B68002B36D1BB688E
:103E7C001B0CDBB2012B0CD1FB681B685B69DA43B2
:103E8C00BB6813409BB2002B14BF01230023DBB291
:103E9C000BE0FB681B689B69DA43BB6813409BB261
:103EAC00002B14BF01230023DBB2002B16D0FB68C0
:103EBC0000221A63FB68202283F83D20FB68002255
:103ECC0083F83E20FB681B6C43F02002FB681A64ED
:103EDC00FB68002283F83C20012321E0BB681B0C0B
:103EEC00DBB2012B0CD1FB681B685B69DA43BB6846
:103EFC0013409BB2002B14BF01230023DBB20BE059
:103F0C00FB681B689B69DA43BB6813409BB2002BB0
:103F1C0014BF01230023DBB2002B7FF46DAF002311
:103F2C0018461037BD4680BD80B584B000AFF86030
:103F3C00B9607A6034E0F86800F086F80346002B2C
:103F4C0001D0012334E0BB68B3F1FF3F28D0FEF76A
:103F5C007BFE02467B68D31ABA689A4202D3BB68CE
:103F6C00002B1DD1FB681B685B6903F08003802B61
:103F7C0016D0FB6800221A63FB68202283F83D20D0
:103F8C00FB68002283F83E20FB681B6C43F0200288
:103F9C00FB681A64FB68002283F83C20012307E0CD
:103FAC00FB681B685B6903F08003802BC3D1002383
:103FBC0018461037BD4680BD80B584B000AFF860A0
:103FCC00B9607A6034E0F86800F03EF80346002BE4
:103FDC0001D0012334E0BB68B3F1FF3F28D0FEF7DA
:103FEC0033FE02467B68D31ABA689A4202D3BB6886
:103FFC00002B1DD1FB681B685B6903F00403042BC9
:10400C0016D0FB6800221A63FB68202283F83D203F
:10401C00FB68002283F83E20FB681B6C43F02002F7
:10402C00FB681A64FB68002283F83C20012307E03C
:10403C00FB681B685B6903F00403042BC3D10023EA
:10404C0018461037BD4680BD80B483B000AF786091
:10405C007B681B685B6903F48063B3F5806F1BD1CD
:10406C007B681B686FF480625A617B6800221A635C
:10407C007B68202283F83D207B68002283F83E2059
:10408C007B681B6C43F004027B681A647B6800221B
:10409C0083F83C20012300E0002318460C37BD4672
:1040AC0080BC704780B586B000AF78607B68002B11
:1040BC0001D1012372E27B681B6803F00103002B22
:1040CC0000F08780924B5B6803F00C03042B0CD040
:1040DC008F4B5B6803F00C03082B12D18C4B5B6885
:1040EC0003F48033B3F5803F0BD1894B1B6803F489
:1040FC000033002B6CD07B685B68002B68D10123EC
:10410C004CE27B685B68B3F5803F06D1804B1B6843
:10411C007F4A43F4803313602EE07B685B68002B8E
:10412C000CD17B4B1B687A4A23F480331360784B99
:10413C001B68774A23F4802313601DE07B685B685F
:10414C00B3F5A02F0CD1724B1B68714A43F480233A
:10415C0013606F4B1B686E4A43F4803313600BE0A3
:10416C006B4B1B686A4A23F480331360684B1B68E3
:10417C00674A23F4802313607B685B68002B13D0A1
:10418C00FEF762FD386108E0FEF75EFD02463B6912
:10419C00D31A642B01D9032300E25D4B1B6803F493
:1041AC000033002BF0D014E0FEF74EFD386108E030
:1041BC00FEF74AFD02463B69D31A642B01D903234F
:1041CC00ECE1534B1B6803F40033002BF0D100E0FF
:1041DC0000BF7B681B6803F00203002B63D04C4BC1
:1041EC005B6803F00C03002B0BD0494B5B6803F0AE
:1041FC000C03082B1CD1464B5B6803F48033002B5B
:10420C0016D1434B1B6803F00203002B05D07B68CF
:10421C001B69012B01D00123C0E13D4B1B6823F02E
:10422C00F8027B685B69DB00394913430B603AE0A9
:10423C007B681B69002B20D0364B01221A60FEF7DD
:10424C0003FD386108E0FEF7FFFC02463B69D31A18
:10425C00022B01D90323A1E12D4B1B6803F00203B0
:10426C00002BF0D02A4B1B6823F0F8027B685B69AB
:10427C00DB00274913430B6015E0264B00221A6024
:10428C00FEF7E2FC386108E0FEF7DEFC02463B6913
:10429C00D31A022B01D9032380E11D4B1B6803F0B9
:1042AC000203002BF0D17B681B6803F00803002B82
:1042BC003AD07B689B69002B19D0174B01221A60EE
:1042CC00FEF7C2FC386108E0FEF7BEFC02463B6913
:1042DC00D31A022B01D9032360E10D4B5B6A03F067
:1042EC000203002BF0D0012000F0CEFA1CE00A4BA8
:1042FC0000221A60FEF7A8FC38610FE0FEF7A4FC60
:10430C0002463B69D31A022B08D9032346E100BFAE
:10431C00001002400000424280044242924B5B6A11
:10432C0003F00203002BE9D17B681B6803F0040344
:10433C00002B00F0A6800023FB758B4BDB6903F090
:10434C008053002B0DD1884BDB69874A43F0805397
:10435C00D361854BDB6903F08053BB60BB680123E1
:10436C00FB75824B1B6803F48073002B18D17F4BB9
:10437C001B687E4A43F480731360FEF765FC38615A
:10438C0008E0FEF761FC02463B69D31A642B01D9A5
:10439C00032303E1754B1B6803F48073002BF0D0EF
:1043AC007B68DB68012B06D16F4B1B6A6E4A43F0AE
:1043BC00010313622DE07B68DB68002B0CD16A4B88
:1043CC001B6A694A23F001031362674B1B6A664A36
:1043DC0023F0040313621CE07B68DB68052B0CD113
:1043EC00614B1B6A604A43F0040313625E4B1B6A09
:1043FC005D4A43F0010313620BE05B4B1B6A5A4AA4
:10440C0023F001031362584B1B6A574A23F0040331
:10441C0013627B68DB68002B15D0FEF715FC386146
:10442C000AE0FEF711FC02463B69D31A41F28832CE
:10443C00934201D90323B1E04B4B1B6A03F00203F7
:10444C00002BEED014E0FEF7FFFB38610AE0FEF71C
:10445C00FBFB02463B69D31A41F28832934201D9E5
:10446C0003239BE0404B1B6A03F00203002BEED1AD
:10447C00FB7D012B05D13C4BDB693B4A23F0805380
:10448C00D3617B68DB69002B00F08780364B5B685F
:10449C0003F00C03082B61D07B68DB69022B46D13F
:1044AC00334B00221A60FEF7CFFB386108E0FEF7B1
:1044BC00CBFB02463B69D31A022B01D903236DE0D7
:1044CC00294B1B6803F00073002BF0D17B681B6A2F
:1044DC00B3F5803F08D1244B5B6823F400327B6832
:1044EC009B68214913434B601F4B5B6823F4741288
:1044FC007B68196A7B685B6A0B431B4913434B60EF
:10450C001B4B01221A60FEF79FFB386108E0FEF797
:10451C009BFB02463B69D31A022B01D903233DE0D6
:10452C00114B1B6803F00073002BF0D035E0104BDF
:10453C0000221A60FEF788FB386108E0FEF784FB66
:10454C0002463B69D31A022B01D9032326E0064B02
:10455C001B6803F00073002BF0D11EE07B68DB6955
:10456C00012B07D1012319E000100240007000401C
:10457C00600042420B4B5B68FB60FB6803F48032CB
:10458C007B681B6A9A4206D1FB6803F470127B6845
:10459C005B6A9A4201D0012300E0002318461837C9
:1045AC00BD4680BD0010024080B584B000AF78607D
:1045BC0039607B68002B01D10123D0E06A4B1B686A
:1045CC0003F007033A689A4210D9674B1B6823F033
:1045DC00070265493B6813430B60634B1B6803F090
:1045EC0007033A689A4201D00123B8E07B681B6844
:1045FC0003F00203002B20D07B681B6803F004033C
:10460C00002B05D0594B5B68584A43F4E063536068
:10461C007B681B6803F00803002B05D0534B5B68C9
:10462C00524A43F460535360504B5B6823F0F002E2
:10463C007B689B684D4913434B607B681B6803F098
:10464C000103002B40D07B685B68012B07D1474BE3
:10465C001B6803F40033002B15D101237FE07B682A
:10466C005B68022B07D1414B1B6803F00073002BD6
:10467C0009D1012373E03D4B1B6803F00203002BAF
:10468C0001D101236BE0394B5B6823F003027B689B
:10469C005B68364913434B60FEF7D6FAF8600AE0C4
:1046AC00FEF7D2FA0246FB68D31A41F288329342E3
:1046BC0001D9032353E02D4B5B6803F00C027B689C
:1046CC005B689B009A42EBD1274B1B6803F00703F6
:1046DC003A689A4210D2244B1B6823F007022249F5
:1046EC003B6813430B60204B1B6803F007033A68CD
:1046FC009A4201D0012332E07B681B6803F004036B
:10470C00002B08D0194B5B6823F4E0627B68DB68F4
:10471C00164913434B607B681B6803F00803002B9E
:10472C0009D0124B5B6823F460527B681B69DB0079
:10473C000E4913434B6000F021F802460B4B5B68AB
:10474C001B0903F00F030A49CB5C22FA03F3094A55
:10475C001360094B1B681846FEF734FA0023184601
:10476C001037BD4680BD00BF002002400010024043
:10477C0074680008000000200400002080B487B09A
:10478C0000AF0023FB600023BB6000237B61002390
:10479C007B6000233B611E4B5B68FB60FB6803F096
:1047AC000C03042B02D0082B03D027E0194B3B61E0
:1047BC0027E0FB689B0C03F00F03174AD35C7B606C
:1047CC00FB6803F48033002B10D0114B5B685B0C3F
:1047DC0003F00103114AD35CBB607B680D4A03FBF9
:1047EC0002F2BB68B2FBF3F37B6104E07B680C4A1A
:1047FC0002FB03F37B617B693B6102E0054B3B6190
:10480C0000BF3B6918461C37BD4680BC704700BFD3
:10481C000010024000127A005C7300086C730008F0
:10482C0000093D0080B400AF024B1B681846BD4622
:10483C0080BC70470000002080B500AFFFF7F2FF8E
:10484C000246054B5B681B0A03F007030349CB5C6C
:10485C0022FA03F3184680BD001002408468000859
:10486C0080B500AFFFF7DEFF0246054B5B68DB0A45
:10487C0003F007030349CB5C22FA03F3184680BD0F
:10488C00001002408468000880B485B000AF7860E6
:10489C000A4B1B680A4AA2FB03235B0A7A6802FBD9
:1048AC0003F3FB6000BFFB685A1EFA60002BF9D1C2
:1048BC0000BF00BF1437BD4680BC7047000000200D
:1048CC00D34D621080B582B000AF78607B68002B4E
:1048DC0001D1012341E07B6893F83D30DBB2002B22
:1048EC0006D17B68002283F83C207868FBF7B4FE85
:1048FC007B68022283F83D207B681A687B6804334E
:10490C001946104600F0E6FB7B68012283F846202E
:10491C007B68012283F83E207B68012283F83F20CC
:10492C007B68012283F840207B68012283F84120B8
:10493C007B68012283F842207B68012283F84320A4
:10494C007B68012283F844207B68012283F8452090
:10495C007B68012283F83D20002318460837BD46AA
:10496C0080BD80B582B000AF78607B68002B01D130
:10497C00012341E07B6893F83D30DBB2002B06D17C
:10498C007B68002283F83C20786800F039F87B685B
:10499C00022283F83D207B681A687B680433194631
:1049AC00104600F097FB7B68012283F846207B6859
:1049BC00012283F83E207B68012283F83F207B682C
:1049CC00012283F840207B68012283F841207B6818
:1049DC00012283F842207B68012283F843207B6804
:1049EC00012283F844207B68012283F845207B68F0
:1049FC00012283F83D20002318460837BD4680BDB0
:104A0C0080B483B000AF786000BF0C37BD4680BC6B
:104A1C007047000080B584B000AF786039603B68A7
:104A2C00002B09D17B6893F83E30DBB2012B14BF0D
:104A3C0001230023DBB222E03B68042B09D17B6805
:104A4C0093F83F30DBB2012B14BF01230023DBB200
:104A5C0015E03B68082B09D17B6893F84030DBB23A
:104A6C00012B14BF01230023DBB208E07B6893F811
:104A7C004130DBB2012B14BF01230023DBB2002B2E
:104A8C0001D001235EE03B68002B04D17B6802223D
:104A9C0083F83E2013E03B68042B04D17B68022290
:104AAC0083F83F200BE03B68082B04D17B68022283
:104ABC0083F8402003E07B68022283F841207B6866
:104ACC001B6801223968184600F084FD7B681B685E
:104ADC001E4A934207D17B681B685A6C7B681B6823
:104AEC0042F400425A647B681B68184A93420ED009
:104AFC007B681B68B3F1804F09D07B681B68144A34
:104B0C00934204D07B681B68124A934211D17B6894
:104B1C001B689B6803F00703FB60FB68062B10D037
:104B2C007B681B681A687B681B6842F001021A607C
:104B3C0007E07B681B681A687B681B6842F00102FF
:104B4C001A60002318461037BD4680BD002C01406A
:104B5C00000400400008004080B582B000AF7860CF
:104B6C007B681B681B6903F00203022B22D17B6854
:104B7C001B68DB6803F00203022B1BD17B681B68EC
:104B8C006FF002021A617B6801221A777B681B683E
:104B9C009B6903F00303002B03D0786800F07FFAC5
:104BAC0005E0786800F072FA786800F081FA7B68AA
:104BBC0000221A777B681B681B6903F00403042B23
:104BCC0022D17B681B68DB6803F00403042B1BD128
:104BDC007B681B686FF004021A617B6802221A77EB
:104BEC007B681B689B6903F44073002B03D07868C7
:104BFC0000F055FA05E0786800F048FA786800F0A3
:104C0C0057FA7B6800221A777B681B681B6903F0D4
:104C1C000803082B22D17B681B68DB6803F00803B0
:104C2C00082B1BD17B681B686FF008021A617B682C
:104C3C0004221A777B681B68DB6903F00303002BE3
:104C4C0003D0786800F02BFA05E0786800F01EFAC3
:104C5C00786800F02DFA7B6800221A777B681B6855
:104C6C001B6903F01003102B22D17B681B68DB68D7
:104C7C0003F01003102B1BD17B681B686FF0100224
:104C8C001A617B6808221A777B681B68DB6903F45E
:104C9C004073002B03D0786800F001FA05E07868C7
:104CAC0000F0F4F9786800F003FA7B6800221A77B8
:104CBC007B681B681B6903F00103012B0ED17B6819
:104CCC001B68DB6803F00103012B07D17B681B68B1
:104CDC006FF001021A61786800F0CFF97B681B68ED
:104CEC001B6903F08003802B0ED17B681B68DB688B
:104CFC0003F08003802B07D17B681B686FF0800268
:104D0C001A61786800F0F1FC7B681B681B6903F082
:104D1C004003402B0ED17B681B68DB6803F040031B
:104D2C00402B07D17B681B686FF040021A617868D2
:104D3C0000F0C7F97B681B681B6903F02003202B6C
:104D4C000ED17B681B68DB6803F02003202B07D196
:104D5C007B681B686FF020021A61786800F0BCFC5D
:104D6C0000BF0837BD4680BD80B586B000AFF86087
:104D7C00B9607A600023FB75FB6893F83C30012B1B
:104D8C0001D10223AEE0FB68012283F83C207B6852
:104D9C000C2B00F29F8001A252F823F0DD4D00088D
:104DAC00E14E0008E14E0008E14E00081D4E0008DF
:104DBC00E14E0008E14E0008E14E00085F4E00088D
:104DCC00E14E0008E14E0008E14E00089F4E00083D
:104DDC00FB681B68B968184600F0DEF9FB681B68B5
:104DEC009A69FB681B6842F008029A61FB681B68B1
:104DFC009A69FB681B6822F004029A61FB681B68C5
:104E0C009969BB681A69FB681B680A439A6164E07C
:104E1C00FB681B68B968184600F024FAFB681B682D
:104E2C009A69FB681B6842F400629A61FB681B6814
:104E3C009A69FB681B6822F480629A61FB681B68A4
:104E4C009969BB681B691A02FB681B680A439A6163
:104E5C0043E0FB681B68B968184600F06DFAFB6804
:104E6C001B68DA69FB681B6842F00802DA61FB68B0
:104E7C001B68DA69FB681B6822F00402DA61FB68C4
:104E8C001B68D969BB681A69FB681B680A43DA613D
:104E9C0023E0FB681B68B968184600F0B7FAFB689A
:104EAC001B68DA69FB681B6842F40062DA61FB6814
:104EBC001B68DA69FB681B6822F48062DA61FB68A4
:104ECC001B68D969BB681B691A02FB681B680A431B
:104EDC00DA6102E00123FB7500BFFB68002283F856
:104EEC003C20FB7D18461837BD4680BD80B584B08C
:104EFC0000AF786039600023FB737B6893F83C301B
:104F0C00012B01D10223B4E07B68012283F83C2001
:104F1C007B68022283F83D207B681B689B68BB6022
:104F2C00BB6823F07703BB60BB6823F47F43BB6093
:104F3C007B681B68BA689A603B681B68B3F5005FB6
:104F4C003ED0B3F5005F00F28780B3F5805F00F0D0
:104F5C008680B3F5805F7FD8702B1AD0702B7BD8EE
:104F6C00602B50D0602B77D8502B3CD0502B73D863
:104F7C00402B58D0402B6FD8302B64D0302B6BD8B3
:104F8C00202B60D0202B67D8002B5CD0102B5AD054
:104F9C0062E07B6818683B6899683B685A683B68B4
:104FAC00DB6800F0F8FA7B681B689B68BB60BB6829
:104FBC0043F07703BB607B681B68BA689A604FE06C
:104FCC007B6818683B6899683B685A683B68DB6883
:104FDC0000F0E1FA7B681B689A687B681B6842F4F6
:104FEC0080429A603CE07B6818683B6859683B6873
:104FFC00DB681A4600F058FA7B681B68502118468B
:10500C0000F0AFFA2CE07B6818683B6859683B6885
:10501C00DB681A4600F076FA7B681B68602118463C
:10502C0000F09FFA1CE07B6818683B6859683B6885
:10503C00DB681A4600F038FA7B681B68402118467A
:10504C0000F08FFA0CE07B681A683B681B68194605
:10505C00104600F086FA03E00123FB7300E000BF6A
:10506C007B68012283F83D207B68002283F83C207A
:10507C00FB7B18461037BD4680BD80B483B000AFB3
:10508C00786000BF0C37BD4680BC704780B483B0DD
:10509C0000AF786000BF0C37BD4680BC704780B451
:1050AC0083B000AF786000BF0C37BD4680BC704742
:1050BC0080B483B000AF786000BF0C37BD4680BCB5
:1050CC00704780B483B000AF786000BF0C37BD462A
:1050DC0080BC704780B485B000AF786039607B6865
:1050EC001B68FB607B68294A93420BD07B68B3F149
:1050FC00804F07D07B68264A934203D07B68254AB1
:10510C00934208D1FB6823F07003FB603B685B683B
:10511C00FA681343FB607B681C4A93420BD07B6894
:10512C00B3F1804F07D07B68194A934203D07B6858
:10513C00184A934208D1FB6823F44073FB603B6828
:10514C00DB68FA681343FB60FB6823F080023B6862
:10515C005B691343FB607B68FA681A603B689A686A
:10516C007B68DA623B681A687B689A627B68074ADC
:10517C00934203D13B681A697B681A637B680122EE
:10518C005A6100BF1437BD4680BC7047002C0140EB
:10519C00000400400008004080B487B000AF786085
:1051AC0039607B681B6A7B617B681B6A23F0010298
:1051BC007B681A627B685B683B617B689B69FB6000
:1051CC00FB6823F07003FB60FB6823F00303FB60B8
:1051DC003B681B68FA681343FB607B6923F002038E
:1051EC007B613B689B687A6913437B617B681C4AD3
:1051FC0093420CD17B6923F008037B613B68DB682D
:10520C007A6913437B617B6923F004037B617B68C0
:10521C00134A934211D13B6923F480733B613B6980
:10522C0023F400733B613B685B693A6913433B6150
:10523C003B689B693A6913433B617B683A695A60E6
:10524C007B68FA689A613B685A687B685A637B682A
:10525C007A691A6200BF1C37BD4680BC704700BF1C
:10526C00002C014080B487B000AF786039607B6857
:10527C001B6A7B617B681B6A23F010027B681A62D5
:10528C007B685B683B617B689B69FB60FB6823F414
:10529C00E043FB60FB6823F44073FB603B681B68D6
:1052AC001B02FA681343FB607B6923F020037B61CC
:1052BC003B689B681B017A6913437B617B681D4AC1
:1052CC0093420DD17B6923F080037B613B68DB68E3
:1052DC001B017A6913437B617B6923F040037B617B
:1052EC007B68144A934213D13B6923F480633B617E
:1052FC003B6923F400633B613B685B699B003A6943
:10530C0013433B613B689B699B003A6913433B61C8
:10531C007B683A695A607B68FA689A613B685A689C
:10532C007B689A637B687A691A6200BF1C37BD463A
:10533C0080BC7047002C014080B487B000AF78600F
:10534C0039607B681B6A7B617B681B6A23F4807203
:10535C007B681A627B685B683B617B68DB69FB601E
:10536C00FB6823F07003FB60FB6823F00303FB6016
:10537C003B681B68FA681343FB607B6923F400737A
:10538C007B613B689B681B027A6913437B617B687A
:10539C001D4A93420DD17B6923F400637B613B680A
:1053AC00DB681B027A6913437B617B6923F480639E
:1053BC007B617B68144A934213D13B6923F480537D
:1053CC003B613B6923F400533B613B685B691B0108
:1053DC003A6913433B613B689B691B013A69134370
:1053EC003B617B683A695A607B68FA68DA613B68B2
:1053FC005A687B68DA637B687A691A6200BF1C376B
:10540C00BD4680BC704700BF002C014080B487B003
:10541C0000AF786039607B681B6A3B617B681B6AF4
:10542C0023F480527B681A627B685B687B617B68C3
:10543C00DB69FB60FB6823F4E043FB60FB6823F44F
:10544C004073FB603B681B681B02FA681343FB60EC
:10545C003B6923F400533B613B689B681B033A692F
:10546C0013433B617B680F4A934209D17B6923F458
:10547C0080437B613B685B699B017A6913437B6169
:10548C007B687A695A607B68FA68DA613B685A68AB
:10549C007B681A647B683A691A6200BF1C37BD4688
:1054AC0080BC7047002C014080B487B000AFF8601E
:1054BC00B9607A60FB681B6A7B61FB681B6A23F02E
:1054CC000102FB681A62FB689B693B613B6923F034
:1054DC00F0033B617B681B013A6913433B617B69B9
:1054EC0023F00A037B617A69BB6813437B61FB6819
:1054FC003A699A61FB687A691A6200BF1C37BD462B
:10550C0080BC704780B487B000AFF860B9607A6037
:10551C00FB681B6A7B61FB681B6A23F01002FB684B
:10552C001A62FB689B693B613B6923F470433B61E6
:10553C007B681B033A6913433B617B6923F0A0032F
:10554C007B61BB681B017A6913437B61FB683A6919
:10555C009A61FB687A691A6200BF1C37BD4680BC31
:10556C00704780B485B000AF786039607B689B6809
:10557C00FB60FB6823F07003FB603A68FB68134325
:10558C0043F00703FB607B68FA689A6000BF14372E
:10559C00BD4680BC704780B487B000AFF860B9607E
:1055AC007A603B60FB689B687B617B6923F47F437B
:1055BC007B613B681A027B681A43BB6813437A69A8
:1055CC0013437B61FB687A699A6000BF1C37BD4648
:1055DC0080BC704780B487B000AFF860B9607A6067
:1055EC00BB6803F01F03012202FA03F37B61FB6823
:1055FC001A6A7B69DB431A40FB681A62FB681A6AF9
:10560C00BB6803F01F03796801FA03F31A43FB68C4
:10561C001A6200BF1C37BD4680BC704780B485B091
:10562C0000AF786039607B6893F83C30012B01D176
:10563C00022346E07B68012283F83C207B6802222F
:10564C0083F83D207B681B685B68FB607B681B688C
:10565C009B68BB60FB6823F07003FB603B681B68B6
:10566C00FA681343FB607B681B68FA685A607B68B6
:10567C001B68164A93420ED07B681B68B3F1804FAF
:10568C0009D07B681B68124A934204D07B681B6864
:10569C00104A93420CD1BB6823F08003BB603B687B
:1056AC005B68BA681343BB607B681B68BA689A6016
:1056BC007B68012283F83D207B68002283F83C2024
:1056CC00002318461437BD4680BC7047002C01409F
:1056DC00000400400008004080B483B000AF786044
:1056EC0000BF0C37BD4680BC704780B483B000AFA0
:1056FC00786000BF0C37BD4680BC704780B582B067
:10570C0000AF78607B68002B01D1012342E07B68FD
:10571C0093F84130DBB2002B06D17B68002283F872
:10572C0040207868FBF71CF87B68242283F8412022
:10573C007B681B68DA687B681B6822F40052DA60AD
:10574C00786800F05DFF7B681B681A697B681B68D2
:10575C0022F490421A617B681B685A697B681B684B
:10576C0022F02A025A617B681B68DA687B681B6826
:10577C0042F40052DA607B6800225A647B68202273
:10578C0083F841207B68202283F842207B6800222A
:10579C005A63002318460837BD4680BD80B58AB0D1
:1057AC0002AFF860B9603B601346FB8000237B615D
:1057BC00FB6893F84130DBB2202B6DD1BB68002B1A
:1057CC0002D0FB88002B01D1012366E0FB6800228C
:1057DC005A64FB68212283F84120FDF735FA786181
:1057EC00FB68FA889A84FB68FA88DA84FB689B6801
:1057FC00B3F5805F08D1FB681B69002B04D1002333
:10580C00FB61BB68BB6103E0BB68FB610023BB6150
:10581C002AE03B6800937B6900228021F86800F045
:10582C0024FC0346002B01D0032336E0FB69002B3C
:10583C000BD1BB691B881A46FB681B68C2F30802B4
:10584C005A60BB690233BB6107E0FB691A78FB68DD
:10585C001B685A60FB690133FB61FB68DB8C9BB2F4
:10586C00013B9AB2FB68DA84FB68DB8C9BB2002BA1
:10587C00CFD13B6800937B6900224021F86800F08F
:10588C00F4FB0346002B01D0032306E0FB68202227
:10589C0083F84120002300E0022318462037BD4640
:1058AC0080BD80B584B000AFF860B9601346FB8052
:1058BC00FB6893F84230DBB2202B12D1BB68002B73
:1058CC0002D0FB88002B01D101230BE0FB680022E6
:1058DC001A63FB881A46B968F86800F035FC034671
:1058EC0000E0022318461037BD4680BD80B5BAB023
:1058FC0000AF78607B681B681B68C7F8E4307B6876
:10590C001B68DB68C7F8E0307B681B685B69C7F80D
:10591C00DC300023C7F8D8300023C7F8D430D7F8D0
:10592C00E43003F00F03C7F8D830D7F8D830002B89
:10593C000FD1D7F8E43003F02003002B09D0D7F8AF
:10594C00E03003F02003002B03D0786800F09AFDC0
:10595C005BE2D7F8D830002B00F0DE80D7F8DC30D3
:10596C0003F00103002B06D1D7F8E03003F4907359
:10597C00002B00F0D180D7F8E43003F00103002BAA
:10598C000BD0D7F8E03003F48073002B05D07B6884
:10599C005B6C43F001027B685A64D7F8E43003F087
:1059AC000403002B0BD0D7F8DC3003F00103002BE1
:1059BC0005D07B685B6C43F002027B685A64D7F8B5
:1059CC00E43003F00203002B0BD0D7F8DC3003F0EB
:1059DC000103002B05D07B685B6C43F004027B68F1
:1059EC005A64D7F8E43003F00803002B11D0D7F831
:1059FC00E03003F02003002B05D1D7F8DC3003F0A6
:105A0C000103002B05D07B685B6C43F008027B68BC
:105A1C005A647B685B6C002B00F0F281D7F8E430A1
:105A2C0003F02003002B08D0D7F8E03003F020035C
:105A3C00002B02D0786800F025FD7B681B685B6941
:105A4C0003F04003002B14BF01230023DBB2C7F883
:105A5C00D4307B685B6C03F00803002B03D1D7F8C0
:105A6C00D430002B4FD0786800F02FFC7B681B687B
:105A7C005B6903F04003002B41D07B681B68143337
:105A8C00C7F89C30D7F89C3053E8003FC7F89830E3
:105A9C00D7F8983023F04003C7F8D0307B681B68E8
:105AAC001433D7F8D020C7F8A820C7F8A430D7F8FB
:105ABC00A410D7F8A82041E80023C7F8A030D7F8E5
:105ACC00A030002BD9D17B68DB6B002B13D07B680B
