:020000040800F2
:1000000000500020A90700086903000871030008D8
:10001000790300088103000889030008000000003C
:100020000000000000000000000000009103000834
:100030009D03000800000000A9030008B5030008A4
:10004000F1070008F1070008F1070008F1070008B0
:10005000F1070008F1070008F1070008F1070008A0
:10006000F1070008F1070008F1070008F107000890
:10007000F1070008F1070008C1030008D5030008D4
:10008000F1070008F1070008F1070008F107000870
:10009000F1070008F1070008F1070008F107000860
:1000A000F1070008F1070008F1070008F107000850
:1000B000F1070008F1070008E9030008F10700084C
:1000C000F1070008F1070008F1070008F107000830
:1000D000F1070008FD030008F1070008F107000818
:1000E000F1070008F1070008F10700080000000010
:1000F0000000000000000000000000000000000000
:0C01000000000000000000005FF808F1A3
:10010C0010B5054C237833B9044B13B10448AFF345
:10011C0000800123237010BD10000020000000009F
:10012C004050000808B5034B1BB103490348AFF31B
:10013C00008008BD000000001400002040500008A2
:10014C0080B582B000AF104B5B690F4A43F00103DE
:10015C0053610D4B5B6903F001037B607B680022EC
:10016C0000210E2001F0BDFE0E2001F0D6FE002273
:10017C0000210F2001F0B5FE0F2001F0CEFE00BFD4
:10018C000837BD4680BD00BF0010024080B588B066
:10019C0000AF07F1100300221A605A609A60DA600F
:1001AC00244B9B69234A43F010039361214B9B69B9
:1001BC0003F01003FB60FB681E4B9B691D4A43F068
:1001CC00200393611B4B9B6903F02003BB60BB684E
:1001DC00184B9B69174A43F004039361154B9B69B9
:1001EC0003F004037B607B68124B9B69114A43F05C
:1001FC00080393610F4B9B6903F008033B603B685A
:10020C0001224FF400510C4802F0C8FA4FF400538D
:10021C003B6101237B610123BB610323FB6107F17C
:10022C0010031946044802F035F900BF2037BD46CB
:10023C0080BD00BF001002400010014080B500AF2F
:10024C0001F0F2FC00F00DF8FFF7A0FFFFF778FFCC
:10025C0000F0DEF800F0CEF900F0D0FE00F0F6FE73
:10026C00FCE780B590B000AF07F1180328220021FD
:10027C00184604F0B3FE3B1D00221A605A609A60C7
:10028C00DA601A610123BB614FF48033FB610023F8
:10029C003B620123BB6202237B634FF48033BB635D
:1002AC004FF4E013FB6307F11803184602F08EFAC3
:1002BC000346002B01D000F019F80F237B600223BA
:1002CC00BB600023FB604FF480633B6100237B61C8
:1002DC003B1D0221184602F0FBFC0346002B01D00B
:1002EC0000F004F800BF4037BD4680BD80B400AFBD
:1002FC0072B600BF00BFFDE780B485B000AF154BF0
:10030C009B69144A43F001039361124B9B6903F000
:10031C000103BB60BB680F4BDB690E4A43F0805393
:10032C00D3610C4BDB6903F080537B607B680A4B19
:10033C005B68FB60FB6823F0E063FB60FB6843F0E9
:10034C000073FB60044AFB68536000BF1437BD4662
:10035C0080BC7047001002400000014080B400AF28
:10036C0000BFFDE780B400AF00BFFDE780B400AF75
:10037C0000BFFDE780B400AF00BFFDE780B400AF65
:10038C0000BFFDE780B400AF00BFBD4680BC704726
:10039C0080B400AF00BFBD4680BC704780B400AFD6
:1003AC0000BFBD4680BC704780B500AF01F082FC39
:1003BC0000BF80BD80B500AF024801F037FF00BF21
:1003CC0080BD00BF0001002080B500AF024801F0E5
:1003DC002DFF00BF80BD00BFBC00002080B500AF6A
:1003EC00024802F04DFF00BF80BD00BF2C00002072
:1003FC0080B500AF024803F07FFE00BF80BD00BF98
:10040C007400002080B400AF00BFBD4680BC7047B4
:10041C0080B58EB000AF07F1280300221A605A6035
:10042C009A60DA6007F1200300221A605A603B1DC3
:10043C0000221A605A609A60DA601A615A619A61F5
:10044C003D4B3E4A1A603C4B40F2CF225A603A4B2D
:10045C0000229A60384B40F2CF72DA60364B0022A1
:10046C001A61354B00229A61334802F0BFFD0346F6
:10047C00002B01D0FFF73AFF4FF48053BB6207F11A
:10048C00280319462C4803F0C5F80346002B01D06D
:10049C00FFF72CFF284802F0F8FD0346002B01D093
:1004AC00FFF724FF00233B6200237B6207F120034C
:1004BC001946214803F046FC0346002B01D0FFF7F8
:1004CC0015FF60237B600023BB600023FB600023CF
:1004DC007B613B1D00221946174802F0D9FF0346E9
:1004EC00002B01D0FFF702FF3B1D042219461248D6
:1004FC0002F0CEFF0346002B01D0FFF7F7FE3B1DA9
:10050C00082219460C4802F0C3FF0346002B01D009
:10051C00FFF7ECFE3B1D0C221946074802F0B8FF12
:10052C000346002B01D0FFF7E1FE034800F02EF844
:10053C0000BF3837BD4680BD2C00002000080040AD
:10054C0080B584B000AF78607B681B680D4A93421D
:10055C0013D10D4BDB690C4A43F00403D3610A4BF6
:10056C00DB6903F00403FB60FB68002200211E2002
:10057C0001F0B7FC1E2001F0D0FC00BF1037BD46C7
:10058C0080BD00BF000800400010024080B588B05C
:10059C0000AF786007F1100300221A605A609A606D
:1005AC00DA607B681B68104A934218D10F4B9B6929
:1005BC000E4A43F0080393610C4B9B6903F008034C
:1005CC00FB60FB684FF470733B6102237B61022379
:1005DC00FB6107F110031946054801F05BFF00BFF2
:1005EC002037BD4680BD00BF00080040001002400F
:1005FC00000C014080B500AF114B124A1A60104B31
:10060C004FF4E1325A600E4B00229A600C4B0022E0
:10061C00DA600B4B00221A61094B0C225A61084B11
:10062C0000229A61064B0022DA61054803F0FAFBBE
:10063C000346002B01D0FFF759FE00BF80BD00BF61
:10064C00740000200038014080B588B000AF78609D
:10065C0007F1100300221A605A609A60DA607B6816
:10066C001B68474A934240F08680464B9B69454A3B
:10067C0043F480439361434B9B6903F48043FB60D9
:10068C00FB68404B9B693F4A43F0040393613D4B2D
:10069C009B6903F00403BB60BB684FF400733B61C0
:1006AC0002237B610323FB6107F1100319463648D3
:1006BC0001F0F0FE4FF480633B6100237B6100236B
:1006CC00BB6107F1100319462F4801F0E3FE2F4BD5
:1006DC002F4A1A602D4B00225A602C4B00229A6034
:1006EC002A4B8022DA60294B00221A61274B002208
:1006FC005A61264B00229A61244B0022DA6123486E
:10070C0001F026FC0346002B01D0FFF7EFFD7B68C0
:10071C001E4ADA631D4A7B6853621E4B1E4A1A60DE
:10072C001C4B10225A601B4B00229A60194B8022E2
:10073C00DA60184B00221A61164B00225A61154BD5
:10074C0000229A61134B0022DA61124801F000FC7E
:10075C000346002B01D0FFF7C9FD7B680D4A9A6355
:10076C000C4A7B68536200220021252001F0B9FB62
:10077C00252001F0D2FB00BF2037BD4680BD00BF55
:10078C00003801400010024000080140BC0000206D
:10079C00580002400001002044000240FFF732FEE6
:1007AC000B480C490C4A002302E0D458C4500433C3
:1007BC00C4188C42F9D3094A094C002301E0136098
:1007CC000432A242FBD304F011FCFFF737FD704753
:1007DC00000000200C0000208C50000810000020AD
:1007EC0068030020FEE780B483B000AF78607B68BC
:1007FC004FF0FF321A607B680A225A6000BF0C3738
:10080C00BD4680BC704780B483B000AF78607B6815
:10081C001B68B3F1FF3F0CBF01230023DBB218466A
:10082C000C37BD4680BC704780B483B000AF786095
:10083C007B681A687B685B68013B9A420CBF01239A
:10084C000023DBB218460C37BD4680BC704780B520
:10085C0088B000AFF860B9607A603B60F868FFF769
:10086C00E3FF0346002B20D1FB681B685A1CFB6876
:10087C001A60FB681B68F9681A010A440832B968E7
:10088C001160F9681A010A440C3279681160F96830
:10089C005A1C12010A4439681160FA6801331B01B1
:1008AC0013440433BA6A1A6000E000BF2037BD4617
:1008BC0080BD80B582B000AF786039607868FFF792
:1008CC00A2FF0346002B01D001232EE07B681B689E
:1008DC007A681B01134408331B68DAB23B681A7040
:1008EC007B681B687A681B0113440C331B68DAB2F3
:1008FC003B685A707B681B687A6801331B01134490
:10090C001B68DAB23B689A707B681B687A680133A3
:10091C001B01134404331B68DAB23B68DA707B6842
:10092C001B685A1E7B681A60002318460837BD46A0
:10093C0080BD000080B584B000AF786039603B6842
:10094C000C2B49D801A252F823F000BFCF090008A4
:10095C00E5090008E5090008E5090008B9090008DF
:10096C00E5090008E5090008E5090008A3090008E5
:10097C00E5090008E5090008E50900088D090008EB
:10098C007B681B78FB737B681B79BB737B681A785D
:10099C007B681A7121E07B685B78FB737B685B7901
:1009AC00BB737B685A787B685A7116E07B689B78BE
:1009BC00FB737B689B79BB737B689A787B689A71B5
:1009CC000BE07B68DB78FB737B68DB79BB737B6844
:1009DC00DA787B68DA7100E000BFFA7BBB7B9A4265
:1009EC0036D300237B732CE03B68002B06D1BA7BFB
:1009FC007B7B1A44354B1B685A631CE03B68042B09
:100A0C0007D1BA7B7B7BD118304B1A680B469363AA
:100A1C0011E03B68082B07D1BA7B7B7BD1182B4BA1
:100A2C001A680B46D36306E0BA7B7B7BD118274B45
:100A3C001A680B4613640F2001F058F97B7B0133C5
:100A4C007B737A7BF97BBB7BCB1A9A42CCDB39E08C
:100A5C00FA7BBB7B9A4235D200233B732CE03B687C
:100A6C00002B06D1BA7B3B7BD21A184B1B685A63FE
:100A7C001CE03B68042B07D1BA7B3B7BD11A134B90
:100A8C001A680B46936311E03B68082B07D1BA7BBD
:100A9C003B7BD11A0D4B1A680B46D36306E0BA7B2D
:100AAC003B7BD11A094B1A680B4613640F2001F0DB
:100ABC001DF93B7B01333B733A7BB97BFB7BCB1A38
:100ACC009A42CCDB00BF1037BD4680BD2C00002005
:100ADC0080B584B002AF78603960574B1B68DC225C
:100AEC001A644FF47A7001F001F9534B1B682E22F3
:100AFC00DA634FF47A7001F0F9F84F4B1B682B2234
:100B0C009A634FF47A7001F0F1F84B4B1B682E226C
:100B1C005A634FF47A7001F0E9F87B68DC221A71A1
:100B2C007B682E225A717B682B229A717B682E224D
:100B3C00DA717B68E022DA707B6864229A707B68D9
:100B4C0064225A707B688C221A707B68012283F8AD
:100B5C00382008217868FFF7EDFE04217868FFF74C
:100B6C00E9FE00217868FFF7E5FE0C217868FFF7B5
:100B7C00E1FE3B68B1221A70012239682F4803F05C
:100B8C0025FA2F48FFF72FFE2E48FFF72CFEA62341
:100B9C00009384236622AD212948FFF758FEA72332
:100BAC0000937B237B22AD212548FFF750FEAA231F
:100BBC00009376238A22A0212148FFF748FEAF2319
:100BCC00009375239A2290211D48FFF740FEB22313
:100BDC0000937623A42280211948FFF738FE722354
:100BEC00009385236622AD211648FFF730FE6D2356
:100BFC0000937B237B22AD211248FFF728FE6A234A
:100C0C00009376238B22A0210E48FFF720FE64234D
:100C1C00009375239A2290210A48FFF718FE5A2355
:100C2C0000937623A42280210648FFF710FE00BF14
:100C3C000837BD4680BD00BF2C000020740000208A
:100C4C0044010020EC01002080B582B000AF786038
:100C5C000B46FB70FB78013B0A2B00F2A28101A230
:100C6C0052F823F09D0C0008E70C0008310D000829
:100C7C007B0D0008C50D00080F0E0008590E00086A
:100C8C00A30E0008ED0E0008370F0008730F0008C4
:100C9C007B68B022DA707B687B229A707B687B223F
:100CAC005A707B6899221A707B68002283F838206E
:100CBC007B680C211846FFF73DFE7B680021184627
:100CCC00FFF738FE7B6804211846FFF733FE7B687C
:100CDC0008211846FFF72EFE64E17B68B022DA701B
:100CEC007B687D229A707B687A225A707B688A2294
:100CFC001A707B68002283F838207B680C21184618
:100D0C00FFF718FE7B6800211846FFF713FE7B687F
:100D1C0004211846FFF70EFE7B6808211846FFF7E2
:100D2C0009FE3FE17B68AE22DA707B687B229A7009
:100D3C007B687B225A707B687F221A707B6800224A
:100D4C0083F838207B680C211846FFF7F3FD7B688D
:100D5C0000211846FFF7EEFD7B6804211846FFF7CB
:100D6C00E9FD7B6808211846FFF7E4FD1AE17B6872
:100D7C009022DA707B6894229A707B6878225A7081
:100D8C007B689A221A707B68002283F838207B6873
:100D9C000C211846FFF7CEFD7B6800211846FFF7A3
:100DAC00C9FD7B6804211846FFF7C4FD7B68082148
:100DBC001846FFF7BFFDF5E07B689022DA707B6880
:100DCC0094229A707B6878225A707B6888221A70F9
:100DDC007B68002283F838207B680C211846FFF7CB
:100DEC00A9FD7B6800211846FFF7A4FD7B68042150
:100DFC001846FFF79FFD7B6808211846FFF79AFD00
:100E0C00D0E07B689022DA707B6894229A707B68C1
:100E1C0078225A707B687A221A707B68002283F8D9
:100E2C0038207B680C211846FFF784FD7B68002175
:100E3C001846FFF77FFD7B6804211846FFF77AFD03
:100E4C007B6808211846FFF775FDABE07B688022B4
:100E5C00DA707B68A8229A707B6876225A707B685D
:100E6C009B221A707B68002283F838207B680C2147
:100E7C001846FFF75FFD7B6800211846FFF75AFD07
:100E8C007B6804211846FFF755FD7B68082118463E
:100E9C00FFF750FD86E07B688022DA707B68AA221F
:100EAC009A707B6876225A707B6886221A707B68EF
:100EBC00002283F838207B680C211846FFF73AFD96
:100ECC007B6800211846FFF735FD7B680421184626
:100EDC00FFF730FD7B6808211846FFF72BFD61E01A
:100EEC007B688022DA707B68A8229A707B687822F3
:100EFC005A707B6872221A707B68002283F8382043
:100F0C007B680C211846FFF715FD7B6800211846FD
:100F1C00FFF710FD7B6804211846FFF70BFD7B687B
:100F2C0008211846FFF706FD3CE03B1D19461F48FB
:100F3C00FFF7BFFC7B68002283F838207B680C210C
:100F4C001846FFF7F7FC7B6800211846FFF7F2FC08
:100F5C007B6804211846FFF7EDFC7B6808211846D6
:100F6C00FFF7E8FC1EE03B1D19461148FFF7A1FCFA
:100F7C007B68002283F838207B680C211846FFF729
:100F8C00D9FC7B6800211846FFF7D4FC7B68042150
:100F9C001846FFF7CFFC7B6808211846FFF7CAFC00
:100FAC0000E000BF00BF0837BD4680BD44010020F3
:100FBC00EC01002080B582B000AF78600A220C49A9
:100FCC000C4803F073F80A4B1A780B4B1A70084B49
:100FDC00B0221A70012301220549064802F072FF63
:100FEC00034B01229A7200BF0837BD4680BD00BF7B
:100FFC00A0020020740000209402002080B500AFF5
:10100C000C210E4802F09AF808210C4802F096F8D0
:10101C0004210A4802F092F80021084802F08EF8E8
:10102C00074B00229A720A220549064803F03EF843
:10103C0003490548FFF74CFD00BF80BD2C00002084
:10104C00A002002074000020B002002080B584B003
:10105C0000AFBA4B9B7A012B40F0B781012000F016
:10106C0045FEB74B1B78FF2B00F03D81FF2B00F3A7
:10107C00A881AE2B66DC812BC0F2A381813B2D2B8A
:10108C0000F29F8101A252F823F000BF5911000811
:10109C0075110008CF13000801120008EB110008AD
:1010AC00CF130008CF130008CF130008CF1300088C
:1010BC00CF130008CF130008CF130008CF1300087C
:1010CC00CF130008CF130008CF130008CF1300086C
:1010DC00CF130008CF130008CF130008CF1300085C
:1010EC00CF130008CF130008CF130008CF1300084C
:1010FC00CF130008CF130008CF130008CF1300083C
:10110C00CF130008CF130008CF130008CF1300082B
:10111C00CF130008CF130008CF130008CF1300081B
:10112C00CF130008CF130008CF130008CF1300080B
:10113C00171200084D12000871120008CF13000896
:10114C00CF130008FE2B00F0A3803AE1012201210D
:10115C007C4800F063FB7B4B0122DA607A4A052164
:10116C00784800F0DFFB2DE102220221754800F0E7
:10117C0055FB744B0222DA60FB1D012219467348A1
:10118C0002F094FFFB79704A19466E4800F0CAFBD6
:10119C00FB1D012219466D4802F088FFFB796A4A53
:1011AC001946684800F0BEFB664B0122DA60FB1D55
:1011BC0001221946654802F079FFFB79624A19460B
:1011CC00604800F0AFFBFB1D012219465F4802F09E
:1011DC006DFFFB795C4A19465A4800F0A3FB0222CA
:1011EC000121584800F01AFB574A5849554800F05D
:1011FC00B3FCE7E001220221524800F00FFB524AF7
:10120C005249504800F0A8FCDCE00023FB730BE0D3
:10121C00FA7BFB7B49490A445178494A13440A46F4
:10122C005A70FB7B0133FB73FB7B082BF0D9434BD0
:10123C00B2221A7001224149444802F0C7FEC1E0B3
:10124C000023BB7302E0BB7B0133BB73BB7B082B5E
:10125C00F9D93A4BB3221A70012238493B4802F0B3
:10126C00B5FEAFE000237B7302E07B7B01337B7325
:10127C007B7B082BF9D94FF47A7000F037FD2F4B9C
:10128C00B1221A7001222D49304802F09FFE99E0DC
:10129C000023BB601AE0BB68DBB20A33DBB2194631
:1012AC002948FFF7D1FC00212748FFF7CDFCBB688C
:1012BC00DBB20133DBB219462348FFF7C5FC002132
:1012CC002148FFF7C1FCBB680133BB60BB68082B2E
:1012DC00E1DD1A4BFE221A7001230A2217491B4822
:1012EC0002F0F0FD6EE0154B5A78174BDA70134B89
:1012FC009A78154B9A70114BDA78134B5A700F4B36
:10130C001A79114B1A700D4B5A790F4B83F8382000
:10131C000D4B93F83830002B1AD10C210A48FFF7EB
:10132C0009FB00210848FFF705FB04210648FFF7DD
:10133C0001FB08210448FFF7FDFA34E0A00200206D
:10134C0094020020F0020020B00200207400002063
:10135C00204B93F83830012B10D108211D48FFF792
:10136C00E9FA04211B48FFF7E5FA00211948FFF7B9
:10137C00E1FA0C211748FFF7DDFA14E0154B93F84E
:10138C003830022B0FD10C211248FFF7D3FA082169
:10139C001048FFF7CFFA04210E48FFF7CBFA0021D3
:1013AC000C48FFF7C7FA4FF47A7000F09FFC0A4B19
:1013BC00FF221A70012301220749084802F082FD1E
:1013CC0000E000BF044B00229A7200BF1037BD46EC
:1013DC0080BD00BFB0020020A002002074000020DD
:1013EC0080B485B000AF78600023FB6045E0FA68FC
:1013FC0013465B0013449B001A467B681344196820
:10140C00FA6813465B0013449B001A467B6813442E
:10141C005B6899422ED1FA6813465B0013449B001B
:10142C001A467B6813445968FA6813465B001344E8
:10143C009B001A467B6813449B6899421AD1FA6840
:10144C0013465B0013449B001A467B6813441B68CD
:10145C00012B01D101237DE0FA6813465B00134494
:10146C009B001A467B6813441B68022B02D14FF079
:10147C00FF336FE0FB680133FB60FB68022BB6DDCA
:10148C000023BB602AE07B68BA6853F822207B6893
:10149C000C33B96853F821309A421CD17B680C3359
:1014AC00BA6853F822207B681833B96853F8213096
:1014BC009A4210D17B68BA6853F82230012B01D1C3
:1014CC00012347E07B68BA6853F82230022B02D123
:1014DC004FF0FF333EE0BB680133BB60BB68022BAF
:1014EC00D1DD7B681A687B680C335B689A4214D137
:1014FC007B680C335A687B6818339B689A420CD112
:10150C007B681B68012B01D1012323E07B681B68DE
:10151C00022B02D14FF0FF331CE07B689A687B688A
:10152C000C335B689A4214D17B680C335A687B6825
:10153C0018331B689A420CD17B689B68012B01D134
:10154C00012307E07B689B68022B02D14FF0FF332D
:10155C0000E0002318461437BD4680BC704780B5A8
:10156C0090B002AFF860B9607A603B60F868FFF742
:10157C0037FFF861FB69012B07D0FB69B3F1FF3F23
:10158C0003D0BA687B6C9A4201D1FB69B5E03B6C25
:10159C00002B59D04FF000437B6300233B634EE09C
:1015AC000023FB6243E03A6B13465B0013449B0041
:1015BC001A46FB681344FA6A53F82230002B33D1D5
:1015CC003A6B13465B0013449B001A46FB681344AA
:1015DC00FA6A012143F82210BB68591C7B6C0193F9
:1015EC00002300933B687A68F868FFF7B8FF7861CE
:1015FC003A6B13465B0013449B001A46FB6813447A
:10160C00FA6A002143F822107A6B7B699342B8BFC7
:10161C0013467B637A687B6B9342B8BF13467B603F
:10162C003A687B689A4206DDFB6A0133FB62FB6A0F
:10163C00022BB8DD00E000BF3B6B01333B633B6B1F
:10164C00022BADDD7B6B58E06FF00043BB620023D7
:10165C007B624EE000233B6243E07A6A13465B00F8
:10166C0013449B001A46FB6813443A6A53F8223021
:10167C00002B33D17A6A13465B0013449B001A4645
:10168C00FB6813443A6A022143F82210BB68591CC8
:10169C007B6C0193012300933B687A68F868FFF731
:1016AC005EFFB8617A6A13465B0013449B001A46CE
:1016BC00FB6813443A6A002143F82210BA6ABB69EA
:1016CC009342A8BF1346BB623A68BB6A9342A8BF59
:1016DC0013463B603A687B689A4206DD3B6A0133ED
:1016EC003B623B6A022BB8DD00E000BF7B6A013332
:1016FC007B627B6A022BADDDBB6A18463837BD4670
:10170C0080BD80B58AB002AFF860B9607A603B608A
:10171C004FF00043FB610023BB6149E000237B6178
:10172C0040E0BA6913465B0013449B001A46FB6801
:10173C0013447A6953F82230002B30D1BA6913461E
:10174C005B0013449B001A46FB6813447A69012121
:10175C0043F822103B680193002300936FF0004381
:10176C004FF000420121F868FFF7F9FE3861BA69C1
:10177C0013465B0013449B001A46FB6813447A69BA
:10178C00002143F822103A69FB699A4207DD3B6954
:10179C00FB61BB68BA691A607B687A691A607B69FD
:1017AC0001337B617B69022BBBDDBB690133BB6100
:1017BC00BB69022BB2DD00BF00BF2037BD4680BD28
:1017CC0080B487B000AF786000237B6100233B615D
:1017DC001BE00023FB6012E03A6913465B001344E4
:1017EC009B001A467B681344FA6853F82230002B8E
:1017FC0002D17B6901337B61FB680133FB60FB68C1
:10180C00022BE9DD3B6901333B613B69022BE0DDD7
:10181C007B6918461C37BD4680BC704780B487B0C6
:10182C0000AFF860B9607A60FB6870225A77FB6889
:10183C0000221A60FB68BA685A60FB687A689A6082
:10184C00FB680122DA6000237B6122E000233B610C
:10185C0019E0F9687A6913465B0013443A6913443A
:10186C001433002241F82320F9687A6913465B008F
:10187C0013443A6913440A339B000B4400225A6008
:10188C003B6901333B613B69022BE2DD7B69013330
:10189C007B617B69022BD9DD00BF00BF1C37BD46C5
:1018AC0080BC704780B483B000AF78607B68DB6825
:1018BC0083F003027B68DA6000BF0C37BD4680BC46
:1018CC00704780B485B000AF78600023FB6020E0E7
:1018DC000023BB6017E07968FA6813465B00134479
:1018EC00BA681344143351F823107868FA68134615
:1018FC005B001344BA6813440A339B0003445960D9
:10190C00BB680133BB60BB68022BE4DDFB680133B1
:10191C00FB60FB68022BDBDD00BF00BF1437BD464C
:10192C0080BC704780B584B000AFF860B9607A6055
:10193C00FB68DB68012B04D10B217868FFF784F975
:10194C0003E00A217868FFF77FF9BB68DBB2194620
:10195C007868FFF779F9002318461037BD4680BD2B
:10196C0080B584B000AFF860B9607A603B60BB684A
:10197C001B4A82FB0312DB17D01AB968184B83FB86
:10198C000132CB17D21A13465B001344CA1AF968FA
:10199C0003465B0003441344143351F82330002BEB
:1019AC000CD17B68DBB219463868FFF74DF9BB6880
:1019BC00DBB219463868FFF747F90BE0BB68DBB2BE
:1019CC0019463868FFF740F97B68DBB2194638686E
:1019DC00FFF73AF9002318461037BD4680BD00BF0B
:1019EC005655555580B489B000AFF860B9607A602F
:1019FC000023FB610023BB6147E000237B613EE0D9
:101A0C00F968BA6913465B0013447A6913440A33C4
:101A1C009B000B445B68002B2ED0F968BA69134607
:101A2C005B0013447A6913440A339B000B445968D6
:101A3C00F868BA6913465B0013447A69134414338B
:101A4C0050F82330994217D0FB695A1CFA61002BCD
:101A5C0009D0BA6913465B001A447B6913445A1CBB
:101A6C007B681A6008E0BA6913465B001A447B690C
:101A7C0013445A1CBB681A607B6901337B617B6918
:101A8C00022BBDDDBB690133BB61BB69022BB4DD2D
:101A9C00FB6918462437BD4680BC704790B587B0AB
:101AAC0000AFF860B9607A60FB68B1229A77FB6886
:101ABC001E3301221946B86802F088FAFB681F33FE
:101ACC000A221946B86802F0F1FA00237B611FE084
:101ADC00FA687B6913441F331C787B691D4A82FBAF
:101AEC000312DB17D01A79691A4B83FB0132CB171F
:101AFC00D21A13465B001344CA1AF96803465B00FA
:101B0C0003441344143341F823407B6901337B6154
:101B1C007B69082BDCDDFB6803F11401FB681833CF
:101B2C001A46F868FFF75EFF0346022B0AD1FB68E2
:101B3C005969FB689A697B68F868FFF711FFF868C8
:101B4C00FFF7B0FEF868FFF7BCFE00BF1C37BD46C0
:101B5C0090BD00BF5655555580B584B000AFF860A8
:101B6C00B9607A604AE0FB68DA68FB685B689A42A5
:101B7C000DD1FB681C3301221946B86802F096FAA5
:101B8C00FB681A7FFB685B7F9A42F2D126E0FB6808
:101B9C001B68002B05D17A680521F868FFF7C2FE97
:101BAC001CE0FB6803F15000FB6803F11401FB68B7
:101BBC0003F11802FB681B68C3F10903FFF7A1FDD1
:101BCC00FB685A6913465B001A44FB689B69134413
:101BDC0001337A681946F868FFF7A4FE7A68B96889
:101BEC00F868FFF75BFFFB6850331846FFF7E8FD1A
:101BFC000246FB681A60F868FFF754FEFB681B6826
:101C0C00082B0BDCFB6850331846FFF7E9FB024648
:101C1C00FB681A61FB681B69002BA4D0FB681B696D
:101C2C0018461037BD4680BD80B500AF084B1B6809
:101C3C00074A43F010031360032000F047F900201B
:101C4C0000F008F8FEF758FB0023184680BD00BFD3
:101C5C000020024080B582B000AF7860124B1A6849
:101C6C00124B1B7819464FF47A73B3FBF1F3B2FBAA
:101C7C00F3F3184600F05FF90346002B01D0012363
:101C8C000EE07B680F2B0AD8002279684FF0FF30EA
:101C9C0000F027F9064A7B681360002300E001235B
:101CAC0018460837BD4680BD000000200800002003
:101CBC000400002080B400AF054B1B781A46054B7E
:101CCC001B681344034A136000BFBD4680BC7047B9
:101CDC00080000206403002080B400AF024B1B6896
:101CEC001846BD4680BC70476403002080B584B0A4
:101CFC0000AF7860FFF7F0FFB8607B68FB60FB68B3
:101D0C00B3F1FF3F05D00A4B1B781A46FB6813440E
:101D1C00FB6000BFFFF7E0FF0246BB68D31AFA680E
:101D2C009A42F7D800BF00BF1037BD4680BD00BF38
:101D3C000800002080B485B000AF78607B6803F0A9
:101D4C000703FB600C4BDB68BB60BA684FF6FF0304
:101D5C001340BB60FB681A02BB68134343F0BF63BC
:101D6C0043F40033BB60044ABB68D36000BF143734
:101D7C00BD4680BC704700BF00ED00E080B400AFF2
:101D8C00044BDB681B0A03F007031846BD4680BCF6
:101D9C00704700BF00ED00E080B483B000AF034695
:101DAC00FB7197F90730002B0BDBFB7903F01F025B
:101DBC00064997F907305B09012000FA02F241F855
:101DCC00232000BF0C37BD4680BC704700E100E00B
:101DDC0080B483B000AF03463960FB7197F90730CC
:101DEC00002B0ADB3B68DAB20C4997F90730120179
:101DFC00D2B20B4483F800230AE03B68DAB20849FC
:101E0C00FB7903F00F03043B1201D2B20B441A7698
:101E1C0000BF0C37BD4680BC704700BF00E100E03E
:101E2C0000ED00E080B489B000AFF860B9607A6072
:101E3C00FB6803F00703FB61FB69C3F10703042B89
:101E4C0028BF0423BB61FB690433062B02D9FB6951
:101E5C00033B00E000237B614FF0FF32BB6902FAC9
:101E6C0003F3DA43BB681A407B699A404FF0FF31A9
:101E7C007B6901FA03F3D9437B680B401343184683
:101E8C002437BD4680BC704780B582B000AF786007
:101E9C007B68013BB3F1807F01D301230FE00A4A39
:101EAC007B68013B53600F214FF0FF30FFF790FF31
:101EBC00054B00229A60044B07221A600023184637
:101ECC000837BD4680BD00BF10E000E080B582B091
:101EDC0000AF78607868FFF72DFF00BF0837BD466C
:101EEC0080BD80B586B000AF0346B9607A60FB73E5
:101EFC0000237B61FFF742FF78617A68B9687869E3
:101F0C00FFF790FF024697F90F3011461846FFF77E
:101F1C005FFF00BF1837BD4680BD80B582B000AFF3
:101F2C000346FB7197F907301846FFF735FF00BFE2
:101F3C000837BD4680BD80B582B000AF7860786848
:101F4C00FFF7A2FF034618460837BD4680BD0000C8
:101F5C0080B485B000AF78600023FB607B68002BF9
:101F6C0001D1012343E07B681B681A46224B1344C2
:101F7C00224AA2FB03231B099A007B681A647B6824
:101F8C001F4ADA637B68022283F821207B681B6876
:101F9C001B68FB60FB6823F47F5323F03003FB606A
:101FAC007B685A687B689B681A437B68DB681A43BA
:101FBC007B681B691A437B685B691A437B689B6966
:101FCC001A437B68DB691343FA681343FB607B6835
:101FDC001B68FA681A607B6800229A637B6801228E
:101FEC0083F821207B68002283F8202000231846E8
:101FFC001437BD4680BC7047F8FFFDBFCDCCCCCCB0
:10200C000000024080B586B000AFF860B9607A601D
:10201C003B600023FB75FB6893F82030012B01D14A
:10202C0002234BE0FB68012283F82020FB6893F825
:10203C002130DBB2012B3AD1FB68022283F821203C
:10204C00FB6800229A63FB681B681A68FB681B68B4
:10205C0022F001021A603B687A68B968F86800F0EF
:10206C00EBF9FB68DB6A002B08D0FB681B681A686D
:10207C00FB681B6842F00E021A600FE0FB681B68DD
:10208C001A68FB681B6822F004021A60FB681B6864
:10209C001A68FB681B6842F00A021A60FB681B682E
:1020AC001A68FB681B6842F001021A6005E0FB68C5
:1020BC00002283F820200223FB75FB7D184618377D
:1020CC00BD4680BD80B485B000AF78600023FB7343
:1020DC007B6893F82130DBB2022B08D07B6804229A
:1020EC009A637B68002283F82020012320E07B6820
:1020FC001B681A687B681B6822F00E021A607B68EA
:10210C001B681A687B681B6822F001021A607B68E6
:10211C001A6C7B68DB6B012101FA02F25A607B6856
:10212C00012283F821207B68002283F82020FB7B8E
:10213C0018461437BD4680BC7047000080B584B08B
:10214C0000AF78600023FB737B6893F82130DBB21F
:10215C00022B05D07B6804229A630123FB7351E0A8
:10216C007B681B681A687B681B6822F00E021A6079
:10217C007B681B681A687B681B6822F001021A6076
:10218C007B681B68224A934229D07B681B68214AD2
:10219C00934222D07B681B681F4A93421AD07B68FB
:1021AC001B681E4A934212D07B681B681C4A9342E0
:1021BC000AD07B681B681B4A934202D14FF48013F0
:1021CC000EE04FF080730BE04FF4803308E04FF4D7
:1021DC00805305E04FF4807302E0102300E00123EC
:1021EC00114A53607B68012283F821207B6800220E
:1021FC0083F820207B685B6B002B03D07B685B6BC8
:10220C0078689847FB7B18461037BD4680BD00BFE9
:10221C00080002401C000240300002404400024012
:10222C00580002406C0002400000024080B584B0AF
:10223C0000AF78607B68DB6B1B68FB607B681B689E
:10224C001B68BB607B681B6C04229A40FB681340C4
:10225C00002B4FD0BB6803F00403002B4AD07B68E3
:10226C001B681B6803F02003002B07D17B681B68DD
:10227C001A687B681B6822F004021A607B681B6872
:10228C00664A934229D07B681B68654A934222D0E8
:10229C007B681B68634A93421AD07B681B68624A4E
:1022AC00934212D07B681B68604A93420AD07B68C9
:1022BC001B685F4A934202D14FF480030EE04FF04B
:1022CC0080630BE04FF4802308E04FF4804305E07B
:1022DC004FF4806302E0402300E00423554A53602E
:1022EC007B68DB6A002B00F094807B68DB6A786883
:1022FC0098478EE07B681B6C02229A40FB68134067
:10230C00002B56D0BB6803F00203002B51D07B6826
:10231C001B681B6803F02003002B0BD17B681B6828
:10232C001A687B681B6822F00A021A607B6801221B
:10233C0083F821207B681B68384A934229D07B683C
:10234C001B68374A934222D07B681B68354A9342FC
:10235C001AD07B681B68344A934212D07B681B6886
:10236C00324A93420AD07B681B68314A934202D1AD
:10237C004FF400130EE04FF000730BE04FF40033FA
:10238C0008E04FF4005305E04FF4007302E0202303
:10239C0000E00223274A53607B68002283F8202048
:1023AC007B689B6A002B34D07B689B6A7868984763
:1023BC002FE07B681B6C08229A40FB681340002BB3
:1023CC0028D0BB6803F00803002B23D07B681B6864
:1023DC001A687B681B6822F00E021A607B681A6C04
:1023EC007B68DB6B012101FA02F25A607B680122E7
:1023FC009A637B68012283F821207B68002283F892
:10240C0020207B681B6B002B04D07B681B6B7868CF
:10241C00984700BF00BF1037BD4680BD0800024082
:10242C001C000240300002404400024058000240B0
:10243C006C0002400000024080B485B000AFF86030
:10244C00B9607A603B60FB681A6CFB68DB6B01213E
:10245C0001FA02F25A60FB681B683A685A60FB6822
:10246C005B68102B08D1FB681B687A689A60FB6864
:10247C001B68BA68DA6007E0FB681B68BA689A6088
:10248C00FB681B687A68DA6000BF1437BD4680BCF5
:10249C007047000080B48BB000AF786039600023C7
:1024AC007B6200233B6269E101227B6A02FA03F33F
:1024BC00FB613B681B68FA691340BB61BA69FB6935
:1024CC009A4240F058813B685B689A4A93425ED0CE
:1024DC00984A934275D8984A934258D0964A934258
:1024EC006FD8964A934252D0944A934269D8944AF0
:1024FC0093424CD0924A934263D8924A934246D02C
:10250C00904A93425DD8122B2AD8122B59D801A28B
:10251C0052F823F09B250008752500088725000834
:10252C00C9250008CF250008CF250008CF250008B5
:10253C00CF250008CF250008CF250008CF2500089F
:10254C00CF250008CF250008CF250008CF2500088F
:10255C00CF250008CF2500087D250008912500080F
:10256C00794A934213D02CE03B68DB683B6229E04C
:10257C003B68DB6804333B6224E03B68DB68083370
:10258C003B621FE03B68DB680C333B621AE03B6844
:10259C009B68002B02D104233B6213E03B689B68D1
:1025AC00012B05D108233B627B68FA691A6109E0AB
:1025BC0008233B627B68FA695A6103E000233B62A3
:1025CC0000E000BFBB69FF2B01D87B6801E07B6892
:1025DC0004337B61BB69FF2B02D87B6A9B0002E052
:1025EC007B6A083B9B003B617B691A680F213B6946
:1025FC0001FA03F3DB431A40396A3B6901FA03F32E
:10260C001A437B691A603B685B6803F08053002BAC
:10261C0000F0B1804D4B9B694C4A43F00103936130
:10262C004A4B9B6903F00103BB60BB68484A7B6A59
:10263C009B08023352F82330FB607B6A03F00303E0
:10264C009B000F2202FA03F3DB43FA681340FB6092
:10265C007B68404A934213D07B683F4A93420DD02B
:10266C007B683E4A934207D07B683D4A934201D136
:10267C00032306E0042304E0022302E0012300E02C
:10268C0000237A6A02F0030292009340FA68134323
:10269C00FB602F497B6A9B080233FA6841F82320C0
:1026AC003B685B6803F48013002B06D02D4B9A68B3
:1026BC002C49BB6913438B6006E02A4B9A68BB69B3
:1026CC00DB43284913408B603B685B6803F40013C1
:1026DC00002B06D0234BDA682249BB691343CB602D
:1026EC0006E0204BDA68BB69DB431E491340CB6024
:1026FC003B685B6803F40033002B06D0194B5A6817
:10270C001849BB6913434B6006E0164B5A68BB690A
:10271C00DB43144913404B603B685B6803F4803324
:10272C00002B21D00F4B1A680E49BB6913430B6069
:10273C0021E000BF00003210000031100000221018
:10274C0000002110000012100000111000100240B7
:10275C000000014000080140000C01400010014045
:10276C0000140140000401400B4B1A68BB69DB43A9
:10277C00094913400B607B6A01337B623B681A6822
:10278C007B6A22FA03F3002B7FF48EAE00BF00BFEE
:10279C002C37BD4680BC70470004014080B483B028
:1027AC0000AF78600B467B8013467B707B78002BE8
:1027BC0003D07A887B681A6103E07B881A047B68F3
:1027CC001A6100BF0C37BD4680BC704780B586B01F
:1027DC0000AF78607B68002B01D1012372E27B682B
:1027EC001B6803F00103002B00F08780924B5B68A1
:1027FC0003F00C03042B0CD08F4B5B6803F00C0321
:10280C00082B12D18C4B5B6803F48033B3F5803FFB
:10281C000BD1894B1B6803F40033002B6CD07B6805
:10282C005B68002B68D101234CE27B685B68B3F5D5
:10283C00803F06D1804B1B687F4A43F48033136082
:10284C002EE07B685B68002B0CD17B4B1B687A4AB3
:10285C0023F480331360784B1B68774A23F480236E
:10286C0013601DE07B685B68B3F5A02F0CD1724B35
:10287C001B68714A43F4802313606F4B1B686E4ACC
:10288C0043F4803313600BE06B4B1B686A4A23F4F0
:10289C0080331360684B1B68674A23F480231360F2
:1028AC007B685B68002B13D0FFF716FA386108E0E1
:1028BC00FFF712FA02463B69D31A642B01D90323A2
:1028CC0000E25D4B1B6803F40033002BF0D014E0E6
:1028DC00FFF702FA386108E0FFF7FEF902463B69A0
:1028EC00D31A642B01D90323ECE1534B1B6803F47B
:1028FC000033002BF0D100E000BF7B681B6803F0B5
:10290C000203002B63D04C4B5B6803F00C03002BD1
:10291C000BD0494B5B6803F00C03082B1CD1464BC6
:10292C005B6803F48033002B16D1434B1B6803F018
:10293C000203002B05D07B681B69012B01D00123FE
:10294C00C0E13D4B1B6823F0F8027B685B69DB0040
:10295C00394913430B603AE07B681B69002B20D08C
:10296C00364B01221A60FFF7B7F9386108E0FFF720
:10297C00B3F902463B69D31A022B01D90323A1E117
:10298C002D4B1B6803F00203002BF0D02A4B1B6865
:10299C0023F0F8027B685B69DB00274913430B606B
:1029AC0015E0264B00221A60FFF796F9386108E013
:1029BC00FFF792F902463B69D31A022B01D9032384
:1029CC0080E11D4B1B6803F00203002BF0D17B68E8
:1029DC001B6803F00803002B3AD07B689B69002B23
:1029EC0019D0174B01221A60FFF776F9386108E00D
:1029FC00FFF772F902463B69D31A022B01D9032364
:102A0C0060E10D4B5B6A03F00203002BF0D0012058
:102A1C0000F0CEFA1CE00A4B00221A60FFF75CF9BA
:102A2C0038610FE0FFF758F902463B69D31A022BC5
:102A3C0008D9032346E100BF0010024000004242C7
:102A4C0080044242924B5B6A03F00203002BE9D1F3
:102A5C007B681B6803F00403002B00F0A6800023A6
:102A6C00FB758B4BDB6903F08053002B0DD1884B2E
:102A7C00DB69874A43F08053D361854BDB6903F0F4
:102A8C008053BB60BB680123FB75824B1B6803F44E
:102A9C008073002B18D17F4B1B687E4A43F48073E4
:102AAC001360FFF719F9386108E0FFF715F90246D2
:102ABC003B69D31A642B01D9032303E1754B1B68C3
:102ACC0003F48073002BF0D07B68DB68012B06D1FC
:102ADC006F4B1B6A6E4A43F0010313622DE07B6857
:102AEC00DB68002B0CD16A4B1B6A694A23F001038B
:102AFC001362674B1B6A664A23F0040313621CE0E3
:102B0C007B68DB68052B0CD1614B1B6A604A43F078
:102B1C00040313625E4B1B6A5D4A43F001031362AC
:102B2C000BE05B4B1B6A5A4A23F001031362584BB0
:102B3C001B6A574A23F0040313627B68DB68002B83
:102B4C0015D0FFF7C9F838610AE0FFF7C5F802465F
:102B5C003B69D31A41F28832934201D90323B1E085
:102B6C004B4B1B6A03F00203002BEED014E0FFF773
:102B7C00B3F838610AE0FFF7AFF802463B69D31AA5
:102B8C0041F28832934201D903239BE0404B1B6AEC
:102B9C0003F00203002BEED1FB7D012B05D13C4B46
:102BAC00DB693B4A23F08053D3617B68DB69002BE4
:102BBC0000F08780364B5B6803F00C03082B61D068
:102BCC007B68DB69022B46D1334B00221A60FFF77E
:102BDC0083F8386108E0FFF77FF802463B69D31AA7
:102BEC00022B01D903236DE0294B1B6803F0007302
:102BFC00002BF0D17B681B6AB3F5803F08D1244BC6
:102C0C005B6823F400327B689B68214913434B605B
:102C1C001F4B5B6823F474127B68196A7B685B6AD0
:102C2C000B431B4913434B601B4B01221A60FFF7EC
:102C3C0053F8386108E0FFF74FF802463B69D31AA6
:102C4C00022B01D903233DE0114B1B6803F00073E9
:102C5C00002BF0D035E0104B00221A60FFF73CF847
:102C6C00386108E0FFF738F802463B69D31A022BAB
:102C7C0001D9032326E0064B1B6803F00073002BDD
:102C8C00F0D11EE07B68DB69012B07D1012319E031
:102C9C000010024000700040600042420B4B5B6829
:102CAC00FB60FB6803F480327B681B6A9A4206D196
:102CBC00FB6803F470127B685B6A9A4201D00123B3
:102CCC0000E0002318461837BD4680BD00100240B6
:102CDC0080B584B000AF786039607B68002B01D17F
:102CEC000123D0E06A4B1B6803F007033A689A4251
:102CFC0010D9674B1B6823F0070265493B681343E7
:102D0C000B60634B1B6803F007033A689A4201D0CF
:102D1C000123B8E07B681B6803F00203002B20D072
:102D2C007B681B6803F00403002B05D0594B5B68D0
:102D3C00584A43F4E06353607B681B6803F0080354
:102D4C00002B05D0534B5B68524A43F460535360DD
:102D5C00504B5B6823F0F0027B689B684D49134332
:102D6C004B607B681B6803F00103002B40D07B6831
:102D7C005B68012B07D1474B1B6803F40033002B16
:102D8C0015D101237FE07B685B68022B07D1414B97
:102D9C001B6803F00073002B09D1012373E03D4B3A
:102DAC001B6803F00203002B01D101236BE0394BAC
:102DBC005B6823F003027B685B68364913434B6006
:102DCC00FEF78AFFF8600AE0FEF786FF0246FB6812
:102DDC00D31A41F28832934201D9032353E02D4B8D
:102DEC005B6803F00C027B685B689B009A42EBD13A
:102DFC00274B1B6803F007033A689A4210D2244B06
:102E0C001B6823F0070222493B6813430B60204BDD
:102E1C001B6803F007033A689A4201D0012332E0A1
:102E2C007B681B6803F00403002B08D0194B5B680C
:102E3C0023F4E0627B68DB68164913434B607B68C4
:102E4C001B6803F00803002B09D0124B5B6823F4BA
:102E5C0060527B681B69DB000E4913434B6000F02A
:102E6C0021F802460B4B5B681B0903F00F030A4960
:102E7C00CB5C22FA03F3094A1360094B1B68184612
:102E8C00FEF7E8FE002318461037BD4680BD00BF94
:102E9C0000200240001002405850000800000020A2
:102EAC000400002080B487B000AF0023FB60002337
:102EBC00BB6000237B6100237B6000233B611E4BC6
:102ECC005B68FB60FB6803F00C03042B02D0082B3F
:102EDC0003D027E0194B3B6127E0FB689B0C03F008
:102EEC000F03174AD35C7B60FB6803F48033002B21
:102EFC0010D0114B5B685B0C03F00103114AD35CDF
:102F0C00BB607B680D4A03FB02F2BB68B2FBF3F3B8
:102F1C007B6104E07B680C4A02FB03F37B617B69F9
:102F2C003B6102E0054B3B6100BF3B6918461C3717
:102F3C00BD4680BC704700BF0010024000127A00F2
:102F4C00705000088050000800093D0080B400AFAC
:102F5C00024B1B681846BD4680BC70470000002021
:102F6C0080B500AFFFF7F2FF0246054B5B681B0A0A
:102F7C0003F007030349CB5C22FA03F3184680BD28
:102F8C00001002406850000880B500AFFFF7DEFF6C
:102F9C000246054B5B68DB0A03F007030349CB5C75
:102FAC0022FA03F3184680BD001002406850000856
:102FBC0080B485B000AF78600A4B1B680A4AA2FB4C
:102FCC0003235B0A7A6802FB03F3FB6000BFFB6818
:102FDC005A1EFA60002BF9D100BF00BF1437BD4652
:102FEC0080BC704700000020D34D621080B582B0C9
:102FFC0000AF78607B68002B01D1012341E07B6836
:10300C0093F83D30DBB2002B06D17B68002283F8AD
:10301C003C207868FDF794FA7B68022283F83D2007
:10302C007B681A687B6804331946104600F0E6FB8F
:10303C007B68012283F846207B68012283F83E20BE
:10304C007B68012283F83F207B68012283F84020B3
:10305C007B68012283F841207B68012283F842209F
:10306C007B68012283F843207B68012283F844208B
:10307C007B68012283F845207B68012283F83D2080
:10308C00002318460837BD4680BD80B582B000AF1E
:10309C0078607B68002B01D1012341E07B6893F8B9
:1030AC003D30DBB2002B06D17B68002283F83C203C
:1030BC00786800F039F87B68022283F83D207B6841
:1030CC001A687B6804331946104600F097FB7B683E
:1030DC00012283F846207B68012283F83E207B681E
:1030EC00012283F83F207B68012283F840207B6813
:1030FC00012283F841207B68012283F842207B68FF
:10310C00012283F843207B68012283F844207B68EA
:10311C00012283F845207B68012283F83D2000239F
:10312C0018460837BD4680BD80B483B000AF7860C8
:10313C0000BF0C37BD4680BC7047000080B584B022
:10314C0000AF786039603B68002B09D17B6893F83D
:10315C003E30DBB2012B14BF01230023DBB222E093
:10316C003B68042B09D17B6893F83F30DBB2012B11
:10317C0014BF01230023DBB215E03B68082B09D1F7
:10318C007B6893F84030DBB2012B14BF0123002382
:10319C00DBB208E07B6893F84130DBB2012B14BF43
:1031AC0001230023DBB2002B01D001235EE03B683E
:1031BC00002B04D17B68022283F83E2013E03B688D
:1031CC00042B04D17B68022283F83F200BE03B6880
:1031DC00082B04D17B68022283F8402003E07B6833
:1031EC00022283F841207B681B680122396818464B
:1031FC0000F084FD7B681B681E4A934207D17B68F4
:10320C001B685A6C7B681B6842F400425A647B68EA
:10321C001B68184A93420ED07B681B68B3F1804F31
:10322C0009D07B681B68144A934204D07B681B68E6
:10323C00124A934211D17B681B689B6803F0070309
:10324C00FB60FB68062B10D07B681B681A687B68D8
:10325C001B6842F001021A6007E07B681B681A6861
:10326C007B681B6842F001021A6000231846103775
:10327C00BD4680BD002C0140000400400008004009
:10328C0080B582B000AF78607B681B681B6903F067
:10329C000203022B22D17B681B68DB6803F002035C
:1032AC00022B1BD17B681B686FF002021A617B68D2
:1032BC0001221A777B681B689B6903F00303002BC0
:1032CC0003D0786800F07FFA05E0786800F072FAB5
:1032DC00786800F081FA7B6800221A777B681B689B
:1032EC001B6903F00403042B22D17B681B68DB6889
:1032FC0003F00403042B1BD17B681B686FF00402E2
:10330C001A617B6802221A777B681B689B6903F43D
:10331C004073002B03D0786800F055FA05E078680C
:10332C0000F048FA786800F057FA7B6800221A77A8
:10333C007B681B681B6903F00803082B22D17B6890
:10334C001B68DB6803F00803082B1BD17B681B6828
:10335C006FF008021A617B6804221A777B681B687D
:10336C00DB6903F00303002B03D0786800F02BFA21
:10337C0005E0786800F01EFA786800F02DFA7B689A
:10338C0000221A777B681B681B6903F01003102B53
:10339C0022D17B681B68DB6803F01003102B1BD158
:1033AC007B681B686FF010021A617B6808221A7721
:1033BC007B681B68DB6903F44073002B03D07868CF
:1033CC0000F001FA05E0786800F0F4F9786800F094
:1033DC0003FA7B6800221A777B681B681B6903F071
:1033EC000103012B0ED17B681B68DB6803F0010322
:1033FC00012B07D17B681B686FF001021A6178689A
:10340C0000F0CFF97B681B681B6903F08003802BED
:10341C000ED17B681B68DB6803F08003802B07D11F
:10342C007B681B686FF080021A61786800F0F1FC11
:10343C007B681B681B6903F04003402B0ED17B6833
:10344C001B68DB6803F04003402B07D17B681B68CB
:10345C006FF040021A61786800F0C7F97B681B684E
:10346C001B6903F02003202B0ED17B681B68DB68E3
:10347C0003F02003202B07D17B681B686FF0200220
:10348C001A61786800F0BCFC00BF0837BD4680BDEF
:10349C0080B586B000AFF860B9607A600023FB7528
:1034AC00FB6893F83C30012B01D10223AEE0FB68A2
:1034BC00012283F83C207B680C2B00F29F8001A238
:1034CC0052F823F0053500080936000809360008C3
:1034DC000936000845350008093600080936000889
:1034EC000936000887350008093600080936000837
:1034FC0009360008C7350008FB681B68B968184610
:10350C0000F0DEF9FB681B689A69FB681B6842F0E7
:10351C0008029A61FB681B689A69FB681B6822F0B9
:10352C0004029A61FB681B689969BB681A69FB689D
:10353C001B680A439A6164E0FB681B68B96818460B
:10354C0000F024FAFB681B689A69FB681B6842F45C
:10355C0000629A61FB681B689A69FB681B6822F41D
:10356C0080629A61FB681B689969BB681B691A02C7
:10357C00FB681B680A439A6143E0FB681B68B968E7
:10358C00184600F06DFAFB681B68DA69FB681B686B
:10359C0042F00802DA61FB681B68DA69FB681B6899
:1035AC0022F00402DA61FB681B68D969BB681A69EE
:1035BC00FB681B680A43DA6123E0FB681B68B96887
:1035CC00184600F0B7FAFB681B68DA69FB681B68E1
:1035DC0042F40062DA61FB681B68DA69FB681B68FD
:1035EC0022F48062DA61FB681B68D969BB681B69CD
:1035FC001A02FB681B680A43DA6102E00123FB75BF
:10360C0000BFFB68002283F83C20FB7D184618376E
:10361C00BD4680BD80B584B000AF786039600023B2
:10362C00FB737B6893F83C30012B01D10223B4E08F
:10363C007B68012283F83C207B68022283F83D20C2
:10364C007B681B689B68BB60BB6823F07703BB601F
:10365C00BB6823F47F43BB607B681B68BA689A60C5
:10366C003B681B68B3F5005F3ED0B3F5005F00F21A
:10367C008780B3F5805F00F08680B3F5805F7FD8DC
:10368C00702B1AD0702B7BD8602B50D0602B77D836
:10369C00502B3CD0502B73D8402B58D0402B6FD88C
:1036AC00302B64D0302B6BD8202B60D0202B67D8DC
:1036BC00002B5CD0102B5AD062E07B6818683B68FA
:1036CC0099683B685A683B68DB6800F0F8FA7B68DD
:1036DC001B689B68BB60BB6843F07703BB607B686F
:1036EC001B68BA689A604FE07B6818683B689968F9
:1036FC003B685A683B68DB6800F0E1FA7B681B6842
:10370C009A687B681B6842F480429A603CE07B6854
:10371C0018683B6859683B68DB681A4600F058FA31
:10372C007B681B685021184600F0AFFA2CE07B68D0
:10373C0018683B6859683B68DB681A4600F076FAF3
:10374C007B681B686021184600F09FFA1CE07B68C0
:10375C0018683B6859683B68DB681A4600F038FA11
:10376C007B681B684021184600F08FFA0CE07B68E0
:10377C001A683B681B681946104600F086FA03E08D
:10378C000123FB7300E000BF7B68012283F83D201E
:10379C007B68002283F83C20FB7B18461037BD4623
:1037AC0080BD80B483B000AF786000BF0C37BD46DD
:1037BC0080BC704780B483B000AF786000BF0C371A
:1037CC00BD4680BC704780B483B000AF786000BF4A
:1037DC000C37BD4680BC704780B483B000AF7860B6
:1037EC0000BF0C37BD4680BC704780B483B000AFBF
:1037FC00786000BF0C37BD4680BC704780B485B084
:10380C0000AF786039607B681B68FB607B68294A75
:10381C0093420BD07B68B3F1804F07D07B68264A6C
:10382C00934203D07B68254A934208D1FB6823F06E
:10383C007003FB603B685B68FA681343FB607B6852
:10384C001C4A93420BD07B68B3F1804F07D07B6846
:10385C00194A934203D07B68184A934208D1FB68FB
:10386C0023F44073FB603B68DB68FA681343FB602E
:10387C00FB6823F080023B685B691343FB607B6849
:10388C00FA681A603B689A687B68DA623B681A6867
:10389C007B689A627B68074A934203D13B681A693A
:1038AC007B681A637B6801225A6100BF1437BD46DE
:1038BC0080BC7047002C0140000400400008004010
:1038CC0080B487B000AF786039607B681B6A7B611D
:1038DC007B681B6A23F001027B681A627B685B6859
:1038EC003B617B689B69FB60FB6823F07003FB60AA
:1038FC00FB6823F00303FB603B681B68FA68134307
:10390C00FB607B6923F002037B613B689B687A69EF
:10391C0013437B617B681C4A93420CD17B6923F077
:10392C0008037B613B68DB687A6913437B617B69C5
:10393C0023F004037B617B68134A934211D13B69EA
:10394C0023F480733B613B6923F400733B613B6858
:10395C005B693A6913433B613B689B693A69134362
:10396C003B617B683A695A607B68FA689A613B688C
:10397C005A687B685A637B687A691A6200BF1C3785
:10398C00BD4680BC704700BF002C014080B487B09E
:10399C0000AF786039607B681B6A7B617B681B6A4F
:1039AC0023F010027B681A627B685B683B617B6862
:1039BC009B69FB60FB6823F4E043FB60FB6823F42A
:1039CC004073FB603B681B681B02FA681343FB6087
:1039DC007B6923F020037B613B689B681B017A6940
:1039EC0013437B617B681D4A93420DD17B6923F0A5
:1039FC0080037B613B68DB681B017A6913437B6145
:103A0C007B6923F040037B617B68144A934213D19A
:103A1C003B6923F480633B613B6923F400633B61A6
:103A2C003B685B699B003A6913433B613B689B694C
:103A3C009B003A6913433B617B683A695A607B6827
:103A4C00FA689A613B685A687B689A637B687A6902
:103A5C001A6200BF1C37BD4680BC7047002C014069
:103A6C0080B487B000AF786039607B681B6A7B617B
:103A7C007B681B6A23F480727B681A627B685B68C4
:103A8C003B617B68DB69FB60FB6823F07003FB60C8
:103A9C00FB6823F00303FB603B681B68FA68134365
:103AAC00FB607B6923F400737B613B689B681B02A2
:103ABC007A6913437B617B681D4A93420DD17B6904
:103ACC0023F400637B613B68DB681B027A69134358
:103ADC007B617B6923F480637B617B68144A93422E
:103AEC0013D13B6923F480533B613B6923F40053AE
:103AFC003B613B685B691B013A6913433B613B6863
:103B0C009B691B013A6913433B617B683A695A60B4
:103B1C007B68FA68DA613B685A687B68DA637B68B1
:103B2C007A691A6200BF1C37BD4680BC704700BF63
:103B3C00002C014080B487B000AF786039607B689E
:103B4C001B6A3B617B681B6A23F480527B681A6298
:103B5C007B685B687B617B68DB69FB60FB6823F4DB
:103B6C00E043FB60FB6823F44073FB603B681B681D
:103B7C001B02FA681343FB603B6923F400533B615F
:103B8C003B689B681B033A6913433B617B680F4A94
:103B9C00934209D17B6923F480437B613B685B6969
:103BAC009B017A6913437B617B687A695A607B68F5
:103BBC00FA68DA613B685A687B681A647B683A6910
:103BCC001A6200BF1C37BD4680BC7047002C0140F8
:103BDC0080B487B000AFF860B9607A60FB681B6A8C
:103BEC007B61FB681B6A23F00102FB681A62FB68AD
:103BFC009B693B613B6923F0F0033B617B681B01D4
:103C0C003A6913433B617B6923F00A037B617A6950
:103C1C00BB6813437B61FB683A699A61FB687A69FC
:103C2C001A6200BF1C37BD4680BC704780B487B099
:103C3C0000AFF860B9607A60FB681B6A7B61FB6857
:103C4C001B6A23F01002FB681A62FB689B693B61DC
:103C5C003B6923F470433B617B681B033A69134354
:103C6C003B617B6923F0A0037B61BB681B017A6914
:103C7C0013437B61FB683A699A61FB687A691A6243
:103C8C0000BF1C37BD4680BC704780B485B000AF08
:103C9C00786039607B689B68FB60FB6823F070037D
:103CAC00FB603A68FB68134343F00703FB607B68D7
:103CBC00FA689A6000BF1437BD4680BC704780B468
:103CCC0087B000AFF860B9607A603B60FB689B68B6
:103CDC007B617B6923F47F437B613B681A027B68C1
:103CEC001A43BB6813437A6913437B61FB687A6997
:103CFC009A6000BF1C37BD4680BC704780B487B04B
:103D0C0000AFF860B9607A60BB6803F01F03012252
:103D1C0002FA03F37B61FB681A6A7B69DB431A4086
:103D2C00FB681A62FB681A6ABB6803F01F037968A8
:103D3C0001FA03F31A43FB681A6200BF1C37BD4635
:103D4C0080BC704780B485B000AF786039607B6808
:103D5C0093F83C30012B01D1022346E07B68012211
:103D6C0083F83C207B68022283F83D207B681B682B
:103D7C005B68FB607B681B689B68BB60FB6823F01F
:103D8C007003FB603B681B68FA681343FB607B683D
:103D9C001B68FA685A607B681B68164A93420ED0FF
:103DAC007B681B68B3F1804F09D07B681B68124A93
:103DBC00934204D07B681B68104A93420CD1BB68B9
:103DCC0023F08003BB603B685B68BA681343BB603D
:103DDC007B681B68BA689A607B68012283F83D2077
:103DEC007B68002283F83C20002318461437BD461C
:103DFC0080BC7047002C01400004004000080040CB
:103E0C0080B483B000AF786000BF0C37BD4680BC77
:103E1C00704780B483B000AF786000BF0C37BD46EC
:103E2C0080BC704780B582B000AF78607B68002B97
:103E3C0001D1012342E07B6893F84130DBB2002BC7
:103E4C0006D17B68002283F840207868FCF7FCFBE5
:103E5C007B68242283F841207B681B68DA687B68C6
:103E6C001B6822F40052DA60786801F029F87B684C
:103E7C001B681A697B681B6822F490421A617B6884
:103E8C001B685A697B681B6822F02A025A617B689E
:103E9C001B68DA687B681B6842F40052DA607B6846
:103EAC0000225A647B68202283F841207B68202200
:103EBC0083F842207B6800225A6300231846083797
:103ECC00BD4680BD80B58AB002AFF860B9603B607A
:103EDC001346FB8000237B61FB6893F84130DBB217
:103EEC00202B6DD1BB68002B02D0FB88002B01D19D
:103EFC00012366E0FB6800225A64FB68212283F8E8
:103F0C004120FDF7E9FE7861FB68FA889A84FB682A
:103F1C00FA88DA84FB689B68B3F5805F08D1FB688C
:103F2C001B69002B04D10023FB61BB68BB6103E060
:103F3C00BB68FB610023BB612AE03B6800937B6993
:103F4C0000228021F86800F0F1FC0346002B01D020
:103F5C00032336E0FB69002B0BD1BB691B881A4687
:103F6C00FB681B68C2F308025A60BB690233BB6171
:103F7C0007E0FB691A78FB681B685A60FB69013320
:103F8C00FB61FB68DB8C9BB2013B9AB2FB68DA8469
:103F9C00FB68DB8C9BB2002BCFD13B6800937B6919
:103FAC0000224021F86800F0C1FC0346002B01D030
:103FBC00032306E0FB68202283F84120002300E065
:103FCC00022318462037BD4680BD000080B58CB05A
:103FDC0000AFF860B9601346FB80FB6893F8413082
:103FEC00DBB2202B56D1BB68002B02D0FB88002BF8
:103FFC0001D101234FE0BA68FB681A62FB68FA88AA
:10400C009A84FB68FA88DA84FB6800225A64FB689D
:10401C00212283F84120FB689B6B214A9A62FB6842
:10402C009B6B204ADA62FB689B6B1F4A1A63FB6826
:10403C009B6B00225A6307F10803FB62FB68986BC9
:10404C00FB6A1968FB681B6804331A46FB88FDF78A
:10405C00D9FFFB681B686FF040021A60FB681B6895
:10406C001433BB61BB6953E8003F7B617B6943F050
:10407C008003BB62FB681B681433BA6A7A623B62CA
:10408C00396A7A6A41E80023FB61FB69002BE5D1B0
:10409C00002300E0022318463037BD4680BD00BF28
:1040AC008746000821470008A548000880B584B061
:1040BC0000AFF860B9601346FB80FB6893F84230A0
:1040CC00DBB2202B12D1BB68002B02D0FB88002B5B
:1040DC0001D101230BE0FB6800221A63FB881A460E
:1040EC00B968F86800F090FC034600E0022318461B
:1040FC001037BD4680BD000080B5BAB000AF786007
:10410C007B681B681B68C7F8E4307B681B68DB683E
:10411C00C7F8E0307B681B685B69C7F8DC300023AC
:10412C00C7F8D8300023C7F8D430D7F8E43003F000
:10413C000F03C7F8D830D7F8D830002B0FD1D7F8E9
:10414C00E43003F02003002B09D0D7F8E03003F063
:10415C002003002B03D0786800F0F4FD5BE2D7F865
:10416C00D830002B00F0DE80D7F8DC3003F00103F0
:10417C00002B06D1D7F8E03003F49073002B00F03D
:10418C00D180D7F8E43003F00103002B0BD0D7F823
:10419C00E03003F48073002B05D07B685B6C43F03C
:1041AC0001027B685A64D7F8E43003F00403002B57
:1041BC000BD0D7F8DC3003F00103002B05D07B6863
:1041CC005B6C43F002027B685A64D7F8E43003F06E
:1041DC000203002B0BD0D7F8DC3003F00103002BCB
:1041EC0005D07B685B6C43F004027B685A64D7F89B
:1041FC00E43003F00803002B11D0D7F8E03003F0C3
:10420C002003002B05D1D7F8DC3003F00103002B81
:10421C0005D07B685B6C43F008027B685A647B6852
:10422C005B6C002B00F0F281D7F8E43003F0200334
:10423C00002B08D0D7F8E03003F02003002B02D07D
:10424C00786800F07FFD7B681B685B6903F04003B6
:10425C00002B14BF01230023DBB2C7F8D4307B68DA
:10426C005B6C03F00803002B03D1D7F8D430002B80
:10427C004FD0786800F089FC7B681B685B6903F0A1
:10428C004003002B41D07B681B681433C7F89C306B
:10429C00D7F89C3053E8003FC7F89830D7F89830DF
:1042AC0023F04003C7F8D0307B681B681433D7F871
:1042BC00D020C7F8A820C7F8A430D7F8A410D7F896
:1042CC00A82041E80023C7F8A030D7F8A030002B75
:1042DC00D9D17B68DB6B002B13D07B68DB6B7E4A00
:1042EC005A637B68DB6B1846FDF728FF0346002BEF
:1042FC0016D07B68DB6B5B6B7A68D26B1046984789
:10430C000EE0786800F0A5F90AE0786800F0A1F9F1
:10431C0006E0786800F09DF97B6800225A6475E12C
:10432C0000BF73E17B681B6B012B40F04F81D7F80A
:10433C00E43003F01003002B00F04881D7F8E03094
:10434C0003F01003002B00F041810023BB607B685D
:10435C001B681B68BB607B681B685B68BB60BB68C9
:10436C007B681B685B6903F04003002B00F0B68090
:10437C007B68DB6B1B685B68A7F8BE30B7F8BE3098
:10438C00002B00F045817B689B8DB7F8BE209A42CC
:10439C0080F03E817B68B7F8BE20DA857B68DB6BEA
:1043AC009B69202B00F088807B681B680C33C7F856
:1043BC008830D7F8883053E8003FC7F88430D7F8F6
:1043CC00843023F48073C7F8B8307B681B680C33D7
:1043DC00D7F8B820C7F89420C7F89030D7F89010C9
:1043EC00D7F8942041E80023C7F88C30D7F88C30EC
:1043FC00002BD9D17B681B6814337B677B6F53E828
:10440C00003F3B673B6F23F00103C7F8B4307B6878
:10441C001B681433D7F8B420C7F88020FB67F96FFA
:10442C00D7F8802041E80023BB67BB6F002BE1D19C
:10443C007B681B6814333B663B6E53E8003FFB659F
:10444C00FB6D23F04003C7F8B0307B681B68143356
:10445C00D7F8B020FA66BB66B96EFA6E41E8002355
:10446C007B667B6E002BE3D17B68202283F8422095
:10447C007B6800221A637B681B680C33FB64FB6C43
:10448C0053E8003FBB64BB6C23F01003C7F8AC309F
:10449C007B681B680C33D7F8AC20BA657B65796DEB
:1044AC00BA6D41E800233B653B6D002BE3D17B6883
:1044BC00DB6B1846FDF706FE7B6802225A637B68AD
:1044CC009A8D7B68DB8D9BB2D31A9BB219467868A8
:1044DC0000F0C8F89CE000BF5B4C00087B689A8D2C
:1044EC007B68DB8D9BB2D31AA7F8CE307B68DB8D53
:1044FC009BB2002B00F08E80B7F8CE30002B00F072
:10450C0089807B681B680C33BB63BB6B53E8003F33
:10451C007B637B6B23F49073C7F8C8307B681B6894
:10452C000C33D7F8C8207A643B64396C7A6C41E858
:10453C000023FB63FB6B002BE3D17B681B681433FC
:10454C007B627B6A53E8003F3B623B6A23F00103CA
:10455C00C7F8C4307B681B681433D7F8C4203A639F
:10456C00FB62F96A3A6B41E80023BB62BB6A002B21
:10457C00E3D17B68202283F842207B6800221A63F7
:10458C007B681B680C333B613B6953E8003FFB6065
:10459C00FB6823F01003C7F8C0307B681B680C3332
:1045AC00D7F8C020FA61BB61B969FA6941E8002308
:1045BC007B617B69002BE3D17B6802225A63B7F8DD
:1045CC00CE301946786800F04DF823E0D7F8E43087
:1045DC0003F08003002B09D0D7F8E03003F0800300
:1045EC00002B03D0786800F046FB14E0D7F8E430D9
:1045FC0003F04003002B0ED0D7F8E03003F040035B
:10460C00002B08D0786800F085FB04E000BF02E0C6
:10461C0000BF00E000BFE837BD4680BD80B483B06A
:10462C0000AF786000BF0C37BD4680BC704780B4CB
:10463C0083B000AF786000BF0C37BD4680BC7047BC
:10464C0080B483B000AF786000BF0C37BD4680BC2F
:10465C00704780B483B000AF786000BF0C37BD46A4
:10466C0080BC704780B483B000AF78600B467B8011
:10467C0000BF0C37BD4680BC704780B590B000AF12
:10468C0078607B685B6AFB637B681B681B6803F064
:10469C002003002B37D1FB6B0022DA84FB6B1B68E9
:1046AC0014337B627B6A53E8003F3B623B6A23F026
:1046BC008003BB63FB6B1B681433BA6B3A63FB62FE
:1046CC00F96A3A6B41E80023BB62BB6A002BE5D167
:1046DC00FB6B1B680C333B613B6953E8003FFB6091
:1046EC00FB6843F040037B63FB6B1B680C337A6BFA
:1046FC00FA61BB61B969FA6941E800237B617B69A6
:10470C00002BE5D102E0F86BFFF788FF00BF4037C4
:10471C00BD4680BD80B584B000AF78607B685B6AB5
:10472C00FB60F868FFF783FF00BF1037BD4680BD04
:10473C0080B59CB000AF78607B685B6AFB667B6879
:10474C001B681B6803F02003002B72D1FB6E002248
:10475C00DA85FB6E1B680C33FB64FB6C53E8003F83
:10476C00BB64BB6C23F48073BB66FB6E1B680C33A1
:10477C00BA6EBA657B65796DBA6D41E800233B650D
:10478C003B6D002BE5D1FB6E1B681433BB63BB6B1D
:10479C0053E8003F7B637B6B23F001037B66FB6E6E
:1047AC001B6814337A6E7A643B64396C7A6C41E81A
:1047BC000023FB63FB6B002BE5D1FB6E1B681433F2
:1047CC007B627B6A53E8003F3B623B6A23F0400309
:1047DC003B66FB6E1B6814333A6E3A63FB62F96AF4
:1047EC003A6B41E80023BB62BB6A002BE5D1FB6E40
:1047FC00202283F84220FB6E1B6B012B19D1FB6E20
:10480C001B680C333B613B6953E8003FFB60FB6862
:10481C0023F01003FB65FB6E1B680C33FA6DFA6119
:10482C00BB61B969FA6941E800237B617B69002BA4
:10483C00E5D1FB6E00225A63FB6E1B6B012B06D17C
:10484C00FB6E9B8D1946F86EFFF70CFF02E0F86EBD
:10485C00FCF7B0FB00BF7037BD4680BD80B584B09F
:10486C0000AF78607B685B6AFB60FB6801225A636F
:10487C00FB681B6B012B08D1FB689B8D5B089BB203
:10488C001946F868FFF7EEFE02E0F868FFF7D8FE6D
:10489C0000BF1037BD4680BD80B584B000AF7860D6
:1048AC000023FB607B685B6ABB60BB681B685B6951
:1048BC0003F08003002B14BF01230023DBB2FB6049
:1048CC00BB6893F84130DBB2212B08D1FB68002B7D
:1048DC0005D0BB680022DA84B86800F02FF9BB68F9
:1048EC001B685B6903F04003002B14BF01230023FA
:1048FC00DBB2FB60BB6893F84230DBB2222B08D1F1
:10490C00FB68002B05D0BB680022DA85B86800F084
:10491C003CF9BB685B6C43F01002BB685A64B86826
:10492C00FFF797FE00BF1037BD4680BD80B590B035
:10493C0000AFF860B9603B601346FB7150E0BB6C94
:10494C00B3F1FF3F4CD0BB6C002B07D0FDF7C4F983
:10495C0002463B68D31ABA6C9A4241D2FB681B6878
:10496C000C33BB62BB6A53E8003F7B627B6A23F467
:10497C00D073FB63FB681B680C33FA6B7A633B6385
:10498C00396B7A6B41E80023FB62FB6A002BE5D1A3
:10499C00FB681B6814337B617B6953E8003F3B6108
:1049AC003B6923F00103BB63FB681B681433BA6BD0
:1049BC003A62FB61F9693A6A41E80023BB61BB6961
:1049CC00002BE5D1FB68202283F84120FB682022D4
:1049DC0083F84220FB68002283F8402003230FE079
:1049EC00FB681B681A68BB681340BA689A420CBF14
:1049FC0001230023DBB21A46FB799A429FD0002395
:104A0C0018464037BD4680BD80B598B000AFF86001
:104A1C00B9601346FB80BA68FB689A62FB68FA8837
:104A2C009A85FB6800225A64FB68222283F8422094
:104A3C00FB68DB6B3E4A9A62FB68DB6B3D4ADA62D1
:104A4C00FB68DB6B3C4A1A63FB68DB6B00225A6326
:104A5C0007F10803FB65FB68D86BFB681B68043324
:104A6C001946FB6D1A68FB88FDF7CCFA00233B61F5
:104A7C00FB681B681B683B61FB681B685B683B61E0
:104A8C003B69FB681B69002B19D0FB681B680C3356
:104A9C003B643B6C53E8003FFB63FB6B43F480735C
:104AAC00BB65FB681B680C33BA6DFA64BB64B96CEC
:104ABC00FA6C41E800237B647B6C002BE5D1FB682E
:104ACC001B681433FB62FB6A53E8003FBB62BB6A92
:104ADC0043F001037B65FB681B6814337A6DBA6382
:104AEC007B63796BBA6B41E800233B633B6B002B18
:104AFC00E5D1FB681B681433BB61BB6953E8003F0D
:104B0C007B617B6943F040033B65FB681B68143396
:104B1C003A6D7A623B62396A7A6A41E80023FB613A
:104B2C00FB69002BE5D1002318466037BD4680BDDC
:104B3C003D47000869480008A548000880B489B0C2
:104B4C0000AF78607B681B680C33FB60FB6853E834
:104B5C00003FBB60BB6823F0C003FB617B681B6834
:104B6C000C33FA69BA617B617969BA6941E800234F
:104B7C003B613B69002BE5D17B68202283F8412007
:104B8C0000BF2437BD4680BC704780B495B000AFE1
:104B9C0078607B681B680C337B637B6B53E8003F4E
:104BAC003B633B6B23F49073FB647B681B680C3397
:104BBC00FA6C3A64FB63F96B3A6C41E80023BB6313
:104BCC00BB6B002BE5D17B681B6814333B623B6AE3
:104BDC0053E8003FFB61FB6923F00103BB647B6876
:104BEC001B681433BA6CFA62BB62B96AFA6A41E8A0
:104BFC0000237B627B6A002BE5D17B681B6B012B4E
:104C0C0019D17B681B680C33FB60FB6853E8003FD1
:104C1C00BB60BB6823F010037B647B681B680C33A0
:104C2C007A6CBA617B617969BA6941E800233B61AE
:104C3C003B69002BE5D17B68202283F842207B68FE
:104C4C0000221A6300BF5437BD4680BC704780B544
:104C5C0084B000AF78607B685B6AFB60FB68002205
:104C6C00DA85FB680022DA84F868FFF7F2FC00BFF3
:104C7C001037BD4680BD80B485B000AF78607B68CE
:104C8C0093F84130DBB2212B3ED17B689B68B3F5A6
:104C9C00805F14D17B681B69002B10D17B681B6A69
:104CAC00FB60FB681B881A467B681B68C2F3080212
:104CBC005A607B681B6A9A1C7B681A6208E07B68E6
:104CCC001B6A591C7A6811621A787B681B685A60D7
:104CDC007B68DB8C9BB2013B9BB27A681946D18412
:104CEC00002B0FD17B681B68DA687B681B6822F08D
:104CFC008002DA607B681B68DA687B681B6842F0AC
:104D0C004002DA60002300E0022318461437BD4647
:104D1C0080BC704780B582B000AF78607B681B6840
:104D2C00DA687B681B6822F04002DA607B6820221C
:104D3C0083F841207868FFF771FC00231846083788
:104D4C00BD4680BD80B58CB000AF78607B6893F8B1
:104D5C004230DBB2222B40F0AE807B689B68B3F50F
:104D6C00805F17D17B681B69002B13D10023FB627A
:104D7C007B689B6ABB627B681B685B689BB2C3F3F6
:104D8C0008039AB2BB6A1A807B689B6A9A1C7B6880
:104D9C009A6226E07B689B6AFB620023BB627B689D
:104DAC009B68B3F5805F07D07B689B68002B0AD1AA
:104DBC007B681B69002B06D17B681B685B68DAB2C9
:104DCC00FB6A1A7008E07B681B685B68DBB203F057
:104DDC007F03DAB2FB6A1A707B689B6A5A1C7B6889
:104DEC009A627B68DB8D9BB2013B9BB27A68194659
:104DFC00D185002B5DD17B681B68DA687B681B68EA
:104E0C0022F02002DA607B681B68DA687B681B681A
:104E1C0022F48072DA607B681B685A697B681B68B5
:104E2C0022F001025A617B68202283F842207B68C1
:104E3C0000225A637B681B6B012B35D17B680022E7
:104E4C001A637B681B680C337B617B6953E8003FFA
:104E5C003B613B6923F010037B627B681B680C335E
:104E6C007A6A3A62FB61F9693A6A41E80023BB61EC
:104E7C00BB69002BE5D17B681B681B6803F0100332
:104E8C00102B0AD10023FB607B681B681B68FB603E
:104E9C007B681B685B68FB60FB687B689B8D1946B5
:104EAC007868FFF7DFFB02E07868FCF783F80023F3
:104EBC0002E0002300E0022318463037BD4680BDD7
:104ECC0080B584B000AF78607B681B681B6923F4E5
:104EDC0040517B68DA687B681B680A431A617B68FF
:104EEC009A687B681B691A437B685B691343BB60D8
:104EFC007B681B68DB6823F4B05323F00C037A68DF
:104F0C001268B9680B43D3607B681B685B6923F438
:104F1C0040717B689A697B681B680A435A617B689D
:104F2C001B682C4A934203D1FEF72EF8F86002E07E
:104F3C00FEF716F8F860FA6813469B0013449A00C3
:104F4C001A447B685B689B00B2FBF3F3224AA2FB1A
:104F5C0003235B091901FA6813469B0013449A005A
:104F6C001A447B685B689B00B2FBF3F21A4BA3FB01
:104F7C0002035B09642000FB03F3D31A1B013233D9
:104F8C00154AA2FB03235B0903F0F0031944FA68EA
:104F9C0013469B0013449A001A447B685B689B0081
:104FAC00B2FBF3F20C4BA3FB02035B09642000FB86
:104FBC0003F3D31A1B013233074AA2FB03235B0909
:104FCC0003F00F027B681B680A449A6000BF10371D
:104FDC00BD4680BD003801401F85EB51034602449D
:104FEC00934200D1704703F8011BF9E770B5002616
:104FFC000C4D0D4C641BA410A64209D100F01AF8FC
:10500C0000260A4D0A4C641BA410A64205D170BDA3
:10501C0055F8043B98470136EEE755F8043B9847A2
:10502C000136F2E7845000088450000884500008D0
:10503C0088500008F8B500BFF8BC08BC9E46704705
:0C504C00F8B500BFF8BC08BC9E467047D9
:105058000000000000000000010203040607080920
:105068000000000001020304020304050607080902
:0C5078000A0B0C0D0E0F101001020000BE
:0450840031010008EE
:045088000D0100080E
:0C508C000024F4001000000001000000EF
:04000005080007A93F
:00000001FF
